:020000040800F2
:1000000000000220F12E01083F5300084153000870
:100010004353000845530008475300080000000000
:10002000000000000000000000000000495300082C
:100030004B530008000000004D5300084F530008C8
:100040008D2F01088D2F01088D2F01088D2F01089C
:100050008D2F01088D2F01088D2F01088D2F01088C
:100060008D2F01088D2F01088D2F01085553000891
:10007000615300088D2F01088D2F01088D2F010875
:100080008D2F01088D2F01086D5300088D2F010859
:100090008D2F01088D2F01088D2F01088D2F01084C
:1000A0008D2F01088D2F01088D2F01088D2F01083C
:1000B0008D2F01088D2F01088D2F01088D2F01082C
:1000C0008D2F01088D2F01088D2F01088D2F01081C
:1000D0008D2F01088D2F01088D2F01088D2F01080C
:1000E0008D2F01088D2F0108000000008D2F0108C1
:1000F0008D2F01088D2F01088D2F01088D2F0108EC
:100100008D2F01088D2F01088D2F01088D2F0108DB
:100110008D2F01088D2F0108FD0201088D2F010888
:100120008D2F01088D2F01088D2F01088D2F0108BB
:100130008D2F01088D2F01088D2F01088D2F0108AB
:1001400000000000000000000000000000000000AF
:100150008D2F01088D2F01088D2F01088D2F01088B
:100160008D2F01088D2F01088D2F01088D2F01087B
:100170008D2F0108795300088D2F01088D2F01085C
:100180008D2F01088D2F01088D2F01088D2F01085B
:100190008D2F01088D2F01088D2F01088D2F01084B
:1001A00049FA00088D2F01088D2F01088D2F0108B5
:1001B0008D2F01088D2F01088D2F01088D2F01082B
:1001C0008D2F01088D2F01088D2F01088D2F01081B
:1001D0008D2F01088D2F01088D2F01088D2F01080B
:1001E0008D2F01088D2F01088D2F01088D2F0108FB
:1001F0008D2F01088D2F01088D2F01088D2F0108EB
:100200008D2F01088D2F01088D2F01088D2F0108DA
:100210008D2F01088D2F01088D2F01088D2F0108CA
:100220008D2F01088D2F01088D2F0108000000007F
:100230008D2F01088D2F0108000000008553000854
:100240008D2F01088D2F01088D2F01088D2F01089A
:100250008D2F01088D2F01088D2F01088D2F01088A
:100260008D2F01088D2F01088D2F01088D2F01087A
:100270008D2F01088D2F01088D2F0108000000002F
:100280008D2F01088D2F01088D2F0108000000001F
:08029000000000008D2F0108A1
:1002C000044B05481B1A062B02D9044B03B11847EF
:1002D000704700BF2F0200202C0200200000000009
:1002E00005490648091A891001EBD171491002D05D
:1002F000034B03B1184770472C0200202C0200204A
:100300000000000010B5064C237843B9FFF7D8FF72
:10031000044B13B10448AFF300800123237010BDD8
:100320000000002400000000E054010808B5084B5C
:100330001BB108490848AFF300800848036813B9A7
:10034000BDE80840CCE7064B002BF9D09847F7E70B
:100350000000000004000024E05401082C020020EA
:1003600000000000D0B52DED028B334C8AB0B0EE0A
:10037000408A00F041F994F900300133F0EE408AF0
:1003800034D0B0EE480A00F06FFB78B3DFED2B7A83
:10039000B4EEE78AF1EE10FA2EDCDFED297AB4EE46
:1003A000E78AF1EE10FA21D594F90030254A01923E
:1003B000B7EEC88A0026002704210022022BCDE9CF
:1003C00006678DED048B8DED028B009108922ED087
:1003D000684600F03FFB50B3089B1BB101F006FEDE
:1003E000089B03609DED060BF7EEC08BB0EE680A2C
:1003F0000AB0BDEC028BD0BD124A94F900300192D4
:10040000B7EEC88A032100228DED048B8DED028B9F
:10041000009108922BB90C4B4FF06042CDE90623B6
:10042000D6E70A490020022BCDE90601D0D101F020
:10043000DDFD22230360CFE7040000208071B1427C
:10044000B5F1CFC2B4640108FFFFEF470000F07FB1
:1004500000B52DED028B8BB0B0EE408A00F09EF916
:10046000334B93F900305A1C09D0B4EE488AF1EEB0
:1004700010FA04D6B5EEC08AF1EE10FA04DD0BB026
:10048000BDEC028B5DF804FBB7EEC87A294A0192F5
:1004900000228DED047B8DED027B0892D3B9264BB3
:1004A000B5EE408A4FF06042F1EE10FACDE9062336
:1004B00035D102230093684600F0CCFAB8B1089B0E
:1004C000D3B99DED060BB7EEC00B0BB0BDEC028BA4
:1004D0005DF804FB1949B5EE408A0020F1EE10FAF0
:1004E000CDE906010DD1022293420092E3D101F041
:1004F0007DFD22230360E2E701F078FD089B0360A5
:10050000DFE70122022B00920BD101F06FFD2123C6
:1005100003600B4800F0A0FA8DED060BCFE7012336
:100520000093684600F096FA0028F2D1EDE700BF8C
:1005300004000020BC640108FFFFEFC70000F0FFCB
:10054000F46401080000000000B52DED028B8BB0B3
:10055000B0EE408A00F02EFA254B93F900305A1C79
:1005600009D0B4EE488AF1EE10FA04D6B5EEC08A8E
:10057000F1EE10FA04D40BB0BDEC028B5DF804FB75
:10058000B7EEC88A01221B49009200228DED048B30
:100590008DED028B01910892B3B19FED137B022B7D
:1005A00087EE076B8DED066B12D101F01FFD212345
:1005B0000360089B93B99DED060BB7EEC00B0BB023
:1005C000BDEC028B5DF804FB00220023CDE906237D
:1005D000684600F03FFA0028EBD1E6E701F006FD9F
:1005E000089B0360E7E700BF000000000000000078
:1005F00004000020C464010810EE103A23F0004209
:10060000B2F1FF4F54D84FEAD37154D053488342CC
:1006100071DC002B67DB524B9A4253D9514B9A4203
:10062000514B7AD803EB8103D3ED004A93ED027A64
:1006300070EE644AC1F101035B1A34EEC70A60EE42
:10064000007A9FED4A4A9FED4A5ADFED4A5A9FEDE4
:100650004A6ADFED4A6AA7EE845AE7EE855AA7EEAA
:10066000A56AE7EE866AB0EE406AA7EEE66AF0EEAB
:10067000006A002B44D020EE060A76EEC67A13F10B
:100680007D0F80EE276AF7EE006A37EE467A37EE86
:10069000647A36EEC70A59DA10EE102A643302EB98
:1006A000C353DFED377A00EE103A20EE270A704789
:1006B00030EE000A7047DFED337A002918BFB0EE44
:1006C000670A7047B2F1465F13D2DFED2F7A70EE02
:1006D000277AF7EE006AF4EEE67AF1EE10FA08DD1A
:1006E00030EE260A7047294B9A4294D99FED250A8D
:1006F00070470023A3E79FED240A20EE000A70470D
:1007000060EE067A76EE666AB7EE006A87EEA67A43
:1007100037EE400A36EE400A704703EB81039FED47
:100720001C7AD3ED047A9FED1B6ADFED1B6AE0EEC5
:10073000077AF0EE404AFDEEE77AB8EEE77A17EE78
:10074000903AE7EE464A27EE267A76E710EE102A30
:1007500002EBC35300EE103A704700BF1772B1426C
:100760001872B13E9115853FFC5401084CBB3133E2
:100770000EEADDB555B38A38610B36BBABAA2A3E0B
:100780000000800D00000000CAF24971B5F1CF42AF
:100790003BAAB83F8071313FD1F7173730B482B0F0
:1007A0008DED010A019B33F000422DD0002B3FDB81
:1007B000B3F1FF4F47DAB3F5000F2EDB00256E4A89
:1007C000C3F31604224402F4000282F07E50DB15CB
:1007D00004F10F0120437F3B00EE100AC1F3160124
:1007E0002B44B7EE007A0F2903EBD25330EE477A51
:1007F00030DCB5EE407AF1EE10FA6CD1002B40F00F
:1008000096809FED5E0A05E09FED5D7ADFED5B7AF5
:1008100087EE270A02B030BC7047DFED5A7A9DEDB3
:10082000017A67EE277A6FF0180517EE903AC6E75F
:10083000DDED017A37EEE77ADFED507A87EE270AB1
:1008400002B030BC7047DDED017A37EEA70A02B086
:1008500030BC7047F0EE006A77EE266A9FED4A2AB8
:100860009FED4A4A9FED4A5ADFED4A2ADFED4A4A98
:10087000DFED4A7A9FED4A6A4A49C7EE263AC4F547
:100880005712214402F522720A43002A06EE903ADA
:1008900063EEA35AB8EEE63A65EEA56AA6EE824A82
:1008A000E6EEA24AA6EE845AA6EEA46AE6EE857AA1
:1008B00067EEA57AE6EE867A46DDB6EE000A27EE0A
:1008C000000A20EE070A0BBB77EE807AA3EEE70A58
:1008D00037EE400A9EE7DFED347AB6EE000AA7EE67
:1008E000670A67EE077A20EE270A002BF0D007EEA2
:1008F000903A9FED2E6ADFED2E6AF8EEE77AA7EECA
:10090000C60A30EE470A97EEA60A83E7DFED276AAC
:100910009FED276A77EE807A63EE266AE3EEA76A98
:1009200030EE660A30EE470A93EE060A72E707EEEB
:10093000903A9FED1E0A9FED1E7AF8EEE77A27EEB9
:10094000800AA7EE870A65E773B19FED180ADFED0D
:10095000186A77EE677A20EE430AA3EEA70A30EE14
:10096000470A93EE260A55E777EE677AA3EEE77A11
:10097000B0EE470A4EE700BF20FB4A00000000002F
:10098000000000CC0000004C9788173E25333A3E0B
:100990002549923E4FD01C3E298E633EABAA2A3F8A
:1009A000CDCCCC3E305CCFFFABAAAA3ED1F71737F7
:1009B0008071313F10EE103A23F00042B2F1FF4F48
:1009C00031D27AB3002B3DDBB2F5000F70B44FEAA1
:1009D000E3502BD3A0F17F02C3F31603D10743F4F6
:1009E000000348BF5B00002456105B002546192118
:1009F0004FF08072A818984202DC1B1A8518144424
:100A000001394FEA43034FEA5202F3D113B10134E3
:100A100024F00104641004F17C5404EBC65370BC50
:100A200000EE103A7047A0EE000A704713F400027F
:100A300001D00CE00A465B001C0202F10101F9D56D
:100A4000801AC7E770EE407A87EEA70A70474FF02A
:100A5000FF32F5E7002070479FED010B704700BFA4
:100A6000000000000000F87F10EE103A23F0004074
:100A7000B0F1FF4FACBF00200120704780F0004074
:100A800002E000BF81F0004142001FBF5FEA410366
:100A900092EA030F7FEA226C7FEA236C6AD04FEA66
:100AA0001262D2EB1363C1BFD218414048404140AB
:100AB000B8BF5B42192B88BF704710F0004F40F45D
:100AC000000020F07F4018BF404211F0004F41F479
:100AD000000121F07F4118BF494292EA030F3FD045
:100AE000A2F1010241FA03FC10EB0C00C3F1200358
:100AF00001FA03F100F0004302D5494260EB4000E7
:100B0000B0F5000F13D3B0F1807F06D340084FEA51
:100B1000310102F10102FE2A51D2B1F1004F40EB46
:100B2000C25008BF20F0010040EA030070474900AE
:100B300040EB000010F4000FA2F10102EDD1B0FA79
:100B400080FCACF1080CB2EB0C0200FA0CF0AABF6E
:100B500000EBC25052421843BCBFD040184370470C
:100B600092F0000F81F4000106BF80F40000013212
:100B7000013BB5E74FEA41037FEA226C18BF7FEAE9
:100B8000236C21D092EA030F04D092F0000F08BF2B
:100B90000846704790EA010F1CBF0020704712F012
:100BA0007F4F04D1400028BF40F00040704712F151
:100BB00000723CBF00F50000704700F0004343F0B6
:100BC000FE4040F4000070477FEA226216BF0846EC
:100BD0007FEA23630146420206BF5FEA412390EAAF
:100BE000010F40F4800070474FF0000304E000BFA5
:100BF00010F0004348BF40425FEA000C08BF704756
:100C000043F0964301464FF000001CE050EA010219
:100C100008BF70474FF000030AE000BF50EA01022E
:100C200008BF704711F0004302D5404261EB41011B
:100C30005FEA010C02BF84460146002043F0B64340
:100C400008BFA3F18053A3F50003BCFA8CF2083A65
:100C5000A3EBC25310DB01FA02FC634400FA02FC6E
:100C6000C2F12002BCF1004F20FA02F243EB020075
:100C700008BF20F00100704702F1200201FA02FCD7
:100C8000C2F1200250EA4C0021FA02F243EB0200CA
:100C900008BF20EADC7070477BB972B90029BEBF7B
:100CA00000204FF0004106E008BF00281CBF6FF095
:100CB00000414FF0FF3001F079B9ADF1080C6DE95A
:100CC00004CE002909DB002B1ADB00F085F8DDF8E3
:100CD00004E0DDE9022304B07047404261EB4101CA
:100CE000002B1BDB00F078F8DDF804E0DDE90223DF
:100CF00004B0404261EB4101524263EB4303704751
:100D0000524263EB430300F067F8DDF804E0DDE9ED
:100D1000022304B0404261EB41017047524263EB51
:100D2000430300F059F8DDF804E0DDE9022304B0E4
:100D3000524263EB4303704753B94AB9002908BFD5
:100D400000281CBF4FF0FF314FF0FF3001F02EB9EB
:100D5000ADF1080C6DE904CE00F03EF8DDF804E0DA
:100D6000DDE9022304B0704707EE900AF5EEC07A81
:100D7000F1EE10FA01D400F00BB808B580F0004095
:100D800000F006F8404261EB410108BD00000000A0
:100D90009FED0D6B07EE900A9FED0D5BB7EEE77AC6
:100DA00027EE066BBCEEC66B0020B8EE464BA4EEF9
:100DB000457BBCEEC77B16EE101A17EE103A1843AF
:100DC000704700BFAFF30080000000000000F03D5E
:100DD000000000000000F0412DE9F0478C460D4670
:100DE0000446089E002B51D18A4217466DD9B2FAAB
:100DF00082FEBEF1000F0BD0CEF1200C01FA0EF5F1
:100E000020FA0CFC02FA0EF74CEA050C00FA0EF47C
:100E10004FEA174A250CBCFBFAF81FFA87F90AFBC0
:100E200018CC45EA0C4508FB09F3AB420AD9ED1989
:100E300008F1FF3280F02381AB4240F22081A8F11B
:100E400002083D44ED1AA4B2B5FBFAF00AFB1055B6
:100E500044EA054400FB09F9A14509D9E41900F168
:100E6000FF3380F00A81A14540F2078102383C44FB
:100E7000A4EB090440EA08400021002E61D024FAC6
:100E80000EF4002334607360BDE8F0878B4207D90D
:100E9000002E54D0002186E821000846BDE8F087E6
:100EA000B3FA83F1002940F08E80AB4202D3824234
:100EB00000F2FA80841A65EB03050120AC46002E8F
:100EC0003FD086E81010BDE8F08712B90127B7FBC4
:100ED000F2F7B7FA87FEBEF1000F34D1EB1B3A0CE4
:100EE0001FFA87FC0121B3FBF2F8250C02FB183333
:100EF00045EA03450CFB08F3AB4207D9ED1908F1AD
:100F0000FF3002D2AB4200F2D1808046ED1AA3B28C
:100F1000B5FBF2F002FB105543EA05440CFB00FC64
:100F2000A44507D9E41900F1FF3302D2A44500F229
:100F3000B8801846A4EB0C0440EA08409DE731460F
:100F40003046BDE8F087CEF1200405FA0EF307FA2B
:100F50000EF720FA04F83A0C25FA04F448EA0308DC
:100F6000B4FBF2F14FEA184502FB11441FFA87FC6B
:100F700045EA044501FB0CF3AB4200FA0EF409D933
:100F8000ED1901F1FF3080F08A80AB4240F287809A
:100F900002393D44EB1A1FFA88F5B3FBF2F002FB6D
:100FA000103345EA034500FB0CF3AB4207D9ED19BA
:100FB00000F1FF386FD2AB426DD902383D44EB1AD5
:100FC00040EA01418FE7C1F1200722FA07F88B4080
:100FD00005FA01F448EA030320FA07FE4FEA134C2E
:100FE000FD404EEA040EB5FBFCF94FEA1E440CFB33
:100FF00019551FFA83F844EA054509FB08F4AC4289
:1010000002FA01F200FA01FA08D9ED1809F1FF30ED
:1010100043D2AC4241D9A9F102091D442D1B1FFA4C
:101020008EFEB5FBFCF00CFB10554EEA054400FBB0
:1010300008F8A04507D9E41800F1FF3529D2A045EA
:1010400027D902381C4440EA0940A4EB0804A0FB5D
:1010500002894C45C6464D4615D312D056B1BAEB5F
:101060000E0364EB050404FA07F7CB401F43CC40A2
:10107000376074600021BDE8F0871846F8E69046B6
:10108000E0E6C245EAD2B8EB020E69EB030501388F
:10109000E4E72846D7E7404691E78146BEE70146A8
:1010A00078E702383C4445E7084608E7A8F102081B
:1010B0003D442BE703685A004CBF43F0004323F044
:1010C00000431844704700BF61B32DE9F84F01F1A8
:1010D000FF3A90460646D146002707EB090404EB89
:1010E000D4746410E50071190846FFF7E3FFA245C8
:1010F000834605F10800304409D0FFF7DBFFC34504
:1011000000F1FF3005D8404509D2671CE5E7C3452B
:1011100005D9A74202D004F1FF39DEE700210846D5
:10112000BDE8F88F08467047012807D0022807D08D
:10113000044B00280CBF1846002070470248704737
:10114000024870472D1800083118000835180008AB
:1011500030B5244B83B004468D1E7BB301A92846CD
:10116000AFF3008020B301992A46FFF7ADFF014697
:10117000F0B1FFF79FFF4B68A064012B12D0002B4A
:1011800001F1040020DBFFF795FF0023E0642365F5
:101190000368002B1CDBFFF78DFF0023206118463E
:1011A00003B030BD002323610523184603B030BDD2
:1011B000002323610923184603B030BD0A490B48B8
:1011C000091AC9100191CFE70123E0642365DFE725
:1011D000C3F30360FFF7A8FF0028206114BF0023BA
:1011E0000923DCE70000000004740108DC69010841
:1011F0000368DA0710B5044606D49B0700F14800DF
:1012000009D500F051FC2368590709D51A070ED5F6
:10121000DB0613D510BD00F03FFC23685907F5D459
:1012200004F1D00000F048FC23681A07F0D404F55C
:10123000A87000F049FC2368DB06EBD404F5E870E5
:10124000BDE8104000F084BC036803B103441846B5
:10125000704700BF09207047704700BF70B5044653
:101260000D4608E02B6C63612A4623692146012064
:101270009847082808D1296C2046FFF769FF0646E1
:101280000028EFD000F094FE0728FBD13046296CEF
:10129000FFF7E2FF281D00F0F3FB00BF2DE9F04748
:1012A0000C1D054692460FCCADF5727D03AE0FC600
:1012B0000FCC0FC60FCC0FC694E80F0002ACD5F8C8
:1012C0000C80D5F8189086E80F0000232846216C82
:1012D0002360FFF73DFFBAF1000F074614BF0A264F
:1012E00009267FB1A36B46F010018DE810022A4653
:1012F000636401202B46C04778BB38460DF5727DEC
:10130000BDE8F087236C6B614FF4F07221467AA838
:1013100001F0DEF92B697AAA294630469847889B66
:1013200082468DE81002314663642A462B4601202E
:10133000C04790B94FF4F0727AA9204601F0C8F97D
:10134000BAF1080F06D1216C2846FFF701FF0926E4
:101350000746C6E7BAF1070F05D0092738460DF54D
:10136000727DBDE8F0873846216CFFF775FF03A852
:1013700000F086FB406C7047F0B5CB6B0B640E1D24
:101380000F4604460FCEF9B001AD0FC50FCE0FC505
:101390000FCE0FC596E80F004FF0FF3685E80F001F
:1013A000009606E023696A462146984708280546C4
:1013B00008D110992046FFF7CBFE0028F2D0092073
:1013C00079B0F0BD6846FFF713FF062DF7D1394617
:1013D0002046FFF743FF00BF30B4DD6BC160826180
:1013E00019461D64002230BC58E700BF70B5C668BE
:1013F00043690B6426B10122FFF750FF00F0D8FDCE
:1014000003690A4604460D4601460220984707280C
:1014100007D0082803D129462046FFF71FFF00F018
:10142000C7FD3046296CFFF717FF281D00F028FB89
:10143000C2681AB1CA6B0A6400222FE79CE700BF9A
:10144000704700BF836813B10146012018477047F9
:1014500000B5042907D8DFE801F0030906090900EF
:101460000BB90F2A05D902205DF804FB01205DF8B5
:1014700004FB00EB820218465368019A13605DF882
:1014800004FB00BF10B584B0002303AC0A460094EF
:101490001946FFF7DDFF039804B010BD00B504291D
:1014A00007D8DFE801F00309060909000BB90F2A84
:1014B00005D902205DF804FB01205DF804FB0199C9
:1014C00000EB82020968516018465DF804FB00BF1A
:1014D00010B584B004AC002344F8042D0A460094EF
:1014E0001946FFF7DBFF04B010BD00BFF0B5D36BAA
:1014F0001364151D07460E460FCDADF50F7D17ACD5
:101500000FC40FCD0FC40FCD0FC495E80F004FF0DF
:10151000FF3584E80F00169510E016A8FFF7D8FFF6
:10152000314616A8B84716AA694678B9049B082020
:101530009847052804460AD0092807D02699684606
:10154000FFF706FE6A460C210028E6D0092416A8FB
:10155000FFF74EFE20460DF50F7DF0BD2DE9F04F53
:101560000D46C96C8BB00C1D096807919146089413
:1015700000F0030B1E46002B60D1090203230791E4
:101580008DF825608DF824302B6DBBF1020F08BF5C
:10159000AC6B13F0010340D1019300F008030393F7
:1015A000D4F80080B8F1000F39D0022E43D0B4F83F
:1015B000008067880434AB6C27F0010A0F2148468D
:1015C0009A44FFF75FFF824533D828F001039A441D
:1015D00050452CBF002001207F0007F0020708F0D3
:1015E000010847EA0807012F3ED035D3022F1CD14E
:1015F000236823F000420292BBF1000F76D128B19C
:10160000039900297ED0002A00F0A680002B77DB0A
:10161000029B013304EB8304C2E700230193022EF3
:101620003EDDFFF717FE002840D009200BB0BDE8D3
:10163000F08F0020D0E767680834BCE7022BA3DCFA
:101640000B0CDAB209048DF82530022304EB820476
:1016500007918DF8243097E7BBF1000F02D00028E6
:1016600040F0BD8004349BE7BBF1000F25D1A8B149
:1016700094E80C00991C4FEAD272D6D005F15801BB
:101680000133069100F0A380201DFFF7DDFD06ABBE
:101690000146284612F0E6FB002877D108347FE7A0
:1016A00007A9484600F0EEFA0028BED1019B002BA6
:1016B0005CD108200BB0BDE8F08F0D2148462F6AA1
:1016C000FFF7E0FE8742E9D1AB6A9C42E6D12046B3
:1016D000FFF7F0FC0F2102464846FFF7F9FE4846A7
:1016E0002A460021FFF7F4FE07209FE70D21484618
:1016F0002F6AFFF7C7FE874258D02368002B87DA8E
:10170000043485E7029B3BB305F15803271DCDF850
:1017100010B0DDF80C80DDF808A00596A3461C4645
:1017200002E0B245B04616D038460694FFF78CFD6D
:1017300006AB01460022284612F094FB08F1010690
:1017400004370028EDD0029B059E43455C46DDF83A
:1017500010B0D2D100E05C4648460D21FFF792FE62
:10176000069B2862AC626B6206205FE70F21484649
:10177000FFF788FE0E2102464846FFF7A9FE4846BD
:10178000294A0F21FFF7A4FE07204FE707460D2146
:101790004846FFF777FE022F28621DD12B46069A96
:1017A00043F82C2F6B62AC6206203FE7AB6A9C4289
:1017B000A3D104220027A3180299A962EF622A6329
:1017C0006B632368BB421DDB0123019320E748467E
:1017D0000D21FFF757FE2862069B6B62E3E7204668
:1017E000FFF768FC04340646AC63284612F098FB09
:1017F00000283FF41AAF484632460F21FFF768FE33
:10180000072013E70846013004EB8000FFF752FC85
:101810000F2102464846FFF75BFE48462A463946F6
:10182000FFF756FE072001E7BB520108002395E6AB
:10183000012393E6022391E6F0B50446C5B00429DE
:101840000DD8DFE801F053030C310F00012B4FEAF4
:10185000124695B262D17219102A40F29B80022082
:1018600045B0F0BD002BFAD1102AF8D82368D8066D
:1018700000F1C68022AE3046019200F073F9A06BF1
:10188000019A0023012505FA03F1114203D00168F2
:1018900046F8231004300133042BF4D1A063304602
:1018A00000F056F90020DBE7032BD8D1150C97B2D6
:1018B000EB19102BD3D823681E0700F1B58022AE98
:1018C000304600F023F9ED00A36B4FB1043D7119D0
:1018D00003EBC70053F8042B41F8042F8342F9D1DE
:1018E0003046A36300F0F0F80020B9E7002BB6D132
:1018F000A56B97B2201D012606FA03F1394203F1C8
:10190000010302D0296801600435102B00F10400A6
:10191000F2D112F400503BD1A563A1E7052B9ED173
:101920007719202F9BD80F2E66D92F46002D3AD13C
:101930002A460027002AA06B72DD00EBC202014696
:1019400044A800EBC6008C3851F8045B40F8045FF3
:101950009142F9D1084697B1102E324644A938BFBA
:10196000102201EBC202A2F5C4727900043A00EB26
:10197000810150F8045B42F8045F8842F9D1012BE1
:1019800048D00F2EA16333D917B102A800F094F804
:10199000002065E70F2E3FF662AF00272268D107CF
:1019A00017D4002F60D02268510745D4012B4DD0A9
:1019B0000F2E06D822A8019300F07AF8019B002F81
:1019C000B6D002A8019300F07BF8019BC6F110028B
:1019D000B0E722F00101052B2160019320463BD0A6
:1019E00022F0030240F8482B00F05AF8019BD8E798
:1019F00022A800F059F8C7E7102FCED9103FCDE745
:101A000023F01003236004F5E870019200F0AAF8B7
:101A1000019A2FE70431A16322A800F03DF8B7E74F
:101A2000002F99D10146AAE723F00803236004F5AB
:101A3000A87000F06BF842E7204622F0040240F85C
:101A4000D02B019300F03CF8019BAFE722A8019353
:101A500000F026F8019BB9E741F0020140F8481B6D
:101A600000F026F8019B9CE7012B03D00F2E3FF6D8
:101A70005FAF9FE722A8019300F012F8019B57E7A0
:101A800000F1340191E838009C46A6464CF8045D0C
:101A900090E8FF0FE54600BD90EC210B704700BFBA
:101AA00080EC210B704700BF90EC200B704700BF0B
:101AB00080EC200B704700BFD0EC200B704700BFBC
:101AC000C0EC200B704700BFF0EC0201F0EC0211FB
:101AD000F0EC0221F0EC0231F0EC0241F0EC0251AA
:101AE000F0EC0261F0EC0271F0EC0281F0EC02919A
:101AF000F0EC02A1F0EC02B1F0EC02C1F0EC02D18A
:101B0000F0EC02E1F0EC02F1704700BFE0EC020102
:101B1000E0EC0211E0EC0221E0EC0231E0EC0241E9
:101B2000E0EC0251E0EC0261E0EC0271E0EC0281D9
:101B3000E0EC0291E0EC02A1E0EC02B1E0EC02C1C9
:101B4000E0EC02D1E0EC02E1E0EC02F1704700BF12
:101B5000B0FC0181B0FC0191B0FC01A1B0FC01B16D
:101B6000704700BFA0FC0181A0FC0191A0FC01A175
:101B7000A0FC01B1704700BFEC4600B52DE9005054
:101B80002DE9FF1F4FF000032DE90C0001A9FFF71D
:101B9000F3FBDDF840E012B0704700BFEC4600B543
:101BA0002DE900502DE9FF1F4FF000032DE90C0037
:101BB00001A9FFF71BFCDDF840E012B0704700BF41
:101BC000EC4600B52DE900502DE9FF1F4FF0000352
:101BD0002DE90C0001A9FFF72BFCDDF840E012B065
:101BE000704700BFEC4600B52DE900502DE9FF1FFE
:101BF0004FF000032DE90C0001ABFFF7EDFBDDF822
:101C000040E012B0704700BFEC4600B52DE900502F
:101C10002DE9FF1F4FF000032DE90C0001AAFFF78B
:101C200065FCDDF840E012B0704700BF027A1AB9D7
:101C3000437A43B9B02070470368013A02721A022E
:101C40000260180E70474268013B10B4437213687B
:101C50000321141D01721A02446002605DF8044BF6
:101C6000180E704700B585B003AA002300921946EC
:101C70000C22FFF7EDFB039805B05DF804FB00BFF5
:101C8000F0E700BF2DE9F043064685B00F464FF060
:101C900000083846FFF7CAFFB028044623D00506DF
:101CA00027D400230DF10C09194685000D22CDF82B
:101CB00000903046FFF7CCFBEDB2039BCDF80090CF
:101CC000600605F104054CBF5D1BED1800231946A5
:101CD0000D2230460395FFF7E1FB3846FFF7A6FFDC
:101CE000B0280446DBD1B8F1000F00F09580002049
:101CF0001CE000F0F003802B5DD0902B19D0A02BBE
:101D00002CD0B02B3FD0C02B6CD000F0F803D02BE0
:101D10000BD100F00702013242F400220523012119
:101D20003046FFF789FD0028B3D0092005B0BDE893
:101D3000F08300F00D030D2BF7D003AD002300F06E
:101D40000F02194600953046FFF782FB00230095ED
:101D500019460D223046FFF7A1FB9AE7C24302F075
:101D600007034FF47F621A41010702F47F624FF0CC
:101D7000000348BF42F4804219463046FFF75CFD3D
:101D80000028D2D185E7B12857D0B22868D0B3282F
:101D900000F0958000F0FC03B42BC6D000F00702E1
:101DA0000132012342F4002219463046FFF744FD78
:101DB0000028BAD16DE73846FFF738FF2402044304
:101DC000B4F5004FB1D024010023A2B21946304629
:101DD000FFF732FD0028A8D114F4004F18BF4FF0D0
:101DE000010856E7C6287DD0C72800F0868000F09D
:101DF000F803C02B00F09480C82800F09F80C92809
:101E000093D13846FFF712FF020300F00F0002F4EF
:101E100070220130024381E703AC43460E22414663
:101E200000943046FFF714FB0094304643460F22DF
:101E30004146FFF733FB404678E73846FFF7F6FEAA
:101E400000283FF472AF10F0F0037FF46EAF02464B
:101E500019463046FFF7F0FC00287FF466AF18E71C
:101E600000230DF10C090D221946CDF800903046E3
:101E7000FFF7EEFA3846FFF7D9FE02064FF00204EC
:101E80000CD5039B00F07F00A04003443846039329
:101E9000FFF7CCFE030604F10704F2D4039BCDF850
:101EA000009000F07F02A24003F501740023144467
:101EB00019460D2230460394FFF7F0FAE9E638465A
:101EC000FFF7B4FE010300F00F0001F47021421C83
:101ED00001230A4330461946FFF7AEFC00287FF481
:101EE00024AFD6E63846FFF7A1FE010300F00F004D
:101EF00001F47021421C0323EBE73846FFF796FEFE
:101F000000283FF412AF10F0F0037FF40EAF02464A
:101F100004213046FFF790FC00287FF406AFB8E6B6
:101F200000F00F020132032342F42022194630460A
:101F3000FFF782FC00287FF4F8AEAAE63846FFF7E8
:101F400075FE00F0F00200F00F031032013343EA97
:101F50000232E3E610B5C36C84B05A6803208DF8F2
:101F60000C00DC798DF80D4012020833084601A9F7
:101F700001920293FFF786FE04B010BD08B5FFF78B
:101F80007FFE806C08BD00BF08B5FFF779FEC06C0E
:101F9000C37900EB8300083008BD00BF08B500F02E
:101FA00007F800BF08B5FFF7F9FF00BF704700BF93
:101FB00008B5062000F0CAFE012002F067F900BF54
:101FC0000A22002101F012BA0A23002201F086B988
:101FD00010B5054C34B113460A460146022001F003
:101FE0004FFA10BD204610BD81340008014B18681F
:101FF000704700BF0C0000208B891A072DE9F041C3
:102000000D46804633D44A68002A67DDEC6A002C0E
:1020100045D00022D8F80060C8F8002013F48052A0
:1020200060D06A6D5F0705D569686B6B521A0BB19A
:102030002B6CD21A0023296A4046A047441C39D091
:10204000AB892A692A60DB044FF000026A6043D43E
:10205000696BC8F8006011B305F14403994202D0DE
:10206000404600F081FC00206863BDE8F0810E6905
:10207000AEB10C680E6098070CBF4B690023A41B1F
:102080008B600AE023463246AF6A296A4046B84769
:102090000028A4EB0004064404DD002CF2DC002040
:1020A000BDE8F081AB8943F04003AB814FF0FF30D6
:1020B000BDE8F081D8F800201D2AF3D8174BD34093
:1020C000DB4313F00103EDD1A9892C696B60C904CE
:1020D0002C60BDD5002ABBD16865B9E70A6C002A1F
:1020E00094DCDCE70123296A4046A047431C0246F2
:1020F00002D0AB89EC6A95E7D8F80030002BF8D015
:102100001D2B01D0162B02D1C8F80060C7E7AB89A0
:1021100043F04003AB81BDE8F08100BF01004020E7
:102120000B6933B310B5044682B008B18369ABB113
:10213000114B994219D0114B994218D0104B99422A
:1021400008BFE168B1F90C3013B9002002B010BD2E
:10215000204602B0BDE81040FFF74EBF019100F0ED
:102160001BF90199044B9942E5D16168EAE7A1683E
:10217000E8E70020704700BF5856010838560108AC
:102180001856010820B1054B01461868FFF7C8BF73
:10219000034B0449186800F045B900BF0C0000204B
:1021A000785601082121000800207047014900F0FD
:1021B00039B900BF212100080020704770B54A1EC0
:1021C000682505FB02F50E4605F1740100F014FCCC
:1021D000044640B100210C30666005F168022160C0
:1021E000A06000F073FB204670BD00BF204B70B5AF
:1021F0001D68AB6906465BB348356B68AC68013B4C
:1022000005D521E0013B5A1C04F168041CD0B4F947
:102210000C20002AF6D100254FF6FF720123E2813F
:10222000A38165662560A560656025616561A5611E
:102230002946082204F15C0000F048FB6563A563B1
:10224000A564E564204670BD286828B10546D4E73A
:10225000284600F00FF8CFE704213046FFF7AEFF25
:1022600028600028F2D10C2304463360EAE700BF5F
:10227000785601083D4B3E491A682DE9F04F9042CF
:102280004FF000038364C364036508BF012383B078
:1022900008BF836181620746FFF7A8FF7860384670
:1022A000FFF7A4FFB8603846FFF7A0FF7D68F8602D
:1022B00000240423AB812C606C60AC606C66EC8104
:1022C0002C616C61AC61214605F15C00082200F0D4
:1022D000FDFABE68DFF89CB0DFF89CA0DFF89C90A8
:1022E000DFF89C80C5F824B001230922C5F828A096
:1022F000C5F82C90C5F830802D622146F381B2815B
:1023000034607460B460746634617461B46106F101
:102310005C000822019300F0D9FAFD6836621220B1
:102320000222C6F824B0C6F828A0C6F82C90C6F839
:1023300030802146A881EA812C606C60AC606C66BC
:102340002C616C61AC6105F15C00082200F0BEFA02
:10235000019B2D62C5F824B0C5F828A0C5F82C90C3
:10236000C5F83080BB6103B0BDE8F08F7856010836
:10237000AD210008BD2D0008E52D0008212E000824
:10238000412E0008024B0349186800F04BB800BF0B
:102390007856010821210008836903B96AE770476C
:1023A000704700BF704700BF704700BF704700BF55
:1023B000024B0349186800F00FB800BF0C00002062
:1023C000B9210008024B0349186800F005B800BFA6
:1023D0000C000020A92100082DE9F04110F1480768
:1023E0001BD0884600267D68BC68013D0FD4A389B8
:1023F000012B05F1FF3506D9B4F90E300133204623
:1024000001D0C04706436B1C04F16804EFD13F685C
:10241000002FE8D13046BDE8F0813E463046BDE8A9
:10242000F08100BF2DE9F84310F148071FD088461E
:1024300006464FF000097D68BC68013D11D4A389B0
:10244000012B05F1FF3508D9B4F90E3001332146CF
:10245000304602D0C04749EA00096B1C04F1680409
:10246000EDD13F68002FE6D14846BDE8F883B94674
:102470004846BDE8F88300BF70B50F4E0F4D761B80
:10248000B61018BF002405D0013455F8043B984716
:10249000A642F9D10A4E0B4D761B13F021F8B61067
:1024A00018BF002406D0013455F8043B9847A642D3
:1024B000F9D170BD70BD00BF047401080474010837
:1024C000487401080474010870B50C46B1F90E1087
:1024D000002990B015461E4613DB01AA01F04AF808
:1024E00000280EDB029A02F47042A2F50052B2FA02
:1024F00082F252094FF48063002032602B6010B0EA
:1025000070BDA38900221B06326004D54023002041
:102510002B6010B070BD4FF4806300202B6010B0B2
:1025200070BD00BF8A8992070B4606D501F14702AC
:1025300001211A601A6159617047F0B583B001AB8F
:102540006A460C460546FFF7BFFF00990646284637
:1025500000F052FAB4F90C30D0B1019A124F009940
:10256000AF6243F08003A3812060206161611AB9EA
:102570003343A38103B0F0BD2846B4F90E1001F037
:102580000DF8B4F90C300028F2D043F00103EFE766
:102590009A05EFD404F1470243F002030121A3811D
:1025A000226022616161E5E7AD210008024B01462E
:1025B000186800F021BA00BF0C000020024B014651
:1025C000186800F0D1B900BF0C0000200000000026
:1025D00001F0FF01102A2BDB10F0070F08D010F8D4
:1025E000013B013A8B422DD010F0070F42B3F6D1D8
:1025F000F0B441EA012141EA014122F007047FF0F1
:1026000000070023F0E80256083C85EA010586EA47
:10261000010685FA47F5A3FA87F586FA47F6A5FA83
:1026200087F68EB9EED1F0BC01F0FF0102F007028F
:1026300032B110F8013B013A83EA010313B1F8D13A
:102640000020704701387047002D06BF354603381B
:10265000073815F0010F07D1013015F4807F02BF54
:10266000013015F4C03F0130F0BC0138704700BFA5
:10267000032A70B422D940EA01039B0711D00378E2
:102680000C78A3421DD10A44013105E010F8013F46
:1026900011F8014BA34214D19142F7D1002070BC34
:1026A00070470D680668AE420C46034601F104010E
:1026B00000F1040008D1043A032AF2D8002ADED13E
:1026C000ECE7181B70BC704721461846D7E700BFDF
:1026D000844641EA000313F003036DD1403A41D32D
:1026E00051F8043B40F8043B51F8043B40F8043BEC
:1026F00051F8043B40F8043B51F8043B40F8043BDC
:1027000051F8043B40F8043B51F8043B40F8043BCB
:1027100051F8043B40F8043B51F8043B40F8043BBB
:1027200051F8043B40F8043B51F8043B40F8043BAB
:1027300051F8043B40F8043B51F8043B40F8043B9B
:1027400051F8043B40F8043B51F8043B40F8043B8B
:1027500051F8043B40F8043B51F8043B40F8043B7B
:10276000403ABDD2303211D351F8043B40F8043B1B
:1027700051F8043B40F8043B51F8043B40F8043B5B
:1027800051F8043B40F8043B103AEDD20C3205D32B
:1027900051F8043B40F8043B043AF9D2043208D023
:1027A000D2071CBF11F8013B00F8013B01D30B8895
:1027B00003806046704700BF082A13D38B078DD073
:1027C00010F003038AD0C3F10403D21ADB071CBF45
:1027D00011F8013B00F8013B80D331F8023B20F8AF
:1027E000023B7BE7043AD9D3013A11F8013B00F8E8
:1027F000013BF9D20B7803704B7843708B78837070
:10280000604670478842F0B50DD98B1898420AD2BD
:102810008418002A51D0224613F8014D02F8014DC8
:102820009942F9D1F0BD0F2A48D941EA00039B072C
:1028300046D100F1100401F11003154653F8106C55
:1028400044F8106C53F80C6C44F80C6C53F8086C9A
:1028500044F8086C103D53F8046C44F8046C0F2DD8
:1028600003F1100304F11004E8D8A2F1100323F0DF
:102870000F0302F00F0E1033BEF1030F194403448F
:1028800021D91E1F0D467446043C55F8047B46F8BA
:10289000047F032CF8D8AEF1040424F003040434BC
:1028A0002144234402F0030262B1013B0A4411F8BF
:1028B000014B03F8014F8A42F9D1F0BD0346F3E71B
:1028C0000346F2E7F0BD7246EEE700BF70B486073C
:1028D00046D0541E002A41D0CAB2034602E014F189
:1028E000FF343BD303F8012B9D07F8D1032C2ED9DD
:1028F000CDB245EA05250F2C45EA054519D903F166
:1029000010022646103E0F2E42F8105C42F80C5C76
:1029100042F8085C42F8045C02F11002F2D8A4F11B
:10292000100222F00F0204F00F041032032C1344A3
:102930000DD91E462246043A032A46F8045BFAD80B
:10294000221F22F003020432134404F003042CB1CA
:10295000C9B21C4403F8011B9C42FBD170BC7047F8
:1029600014460346C2E700BF91B151F8043C043954
:10297000002BB8BFC9181F4B1A68FAB18A4230B48D
:102980000AD908680C18A24226D04A60196030BCE7
:1029900070478B4203D81A465368002BF9D114684C
:1029A00015198D420DD006D808680C189C4219D014
:1029B0004B605160EBE70C230360E8E74A60196065
:1029C000704709680C44111999421460DFD10ACB91
:1029D0000C4453601460DAE7146852684A6020447B
:1029E0000860D3E71C685B684B6020440860516056
:1029F000CDE700BF1C00002470B5CC1C24F00304FC
:102A000008340C2C38BF0C24002C06463BDBA142BA
:102A100039D8274D296851B10A68121B04D436E011
:102A20001A68121B1AD519464B68002BF8D1696831
:102A3000002937D02146304600F0E0F8431C22D070
:102A4000C31C23F00305A84205D0291A304600F024
:102A5000D5F8013017D02C602B4604E00B2A0DD995
:102A60001A6013441C6003F10B0020F007001A1DCC
:102A7000821A02D05142995070BD70BD8B420ED067
:102A80005A684A60EFE70C233360002070BD0B2AC0
:102A900003D84A680B462A60E5E70B46E0E70A469A
:102AA0000B46F8E7304600F0A9F86860C2E700BFBF
:102AB0001C0000240EB410B5044683B018B183691D
:102AC0000BB9FFF769FC06A803460190059AA168B7
:102AD000204600F0C9FD03B0BDE8104003B07047C8
:102AE0000FB410B50A4B1C6882B024B1A36913B9A6
:102AF0002046FFF751FC05A803460190049AA168FF
:102B0000204600F0B1FD02B0BDE8104004B07047AF
:102B10000C00002000000000F8B5144B1C68A36BEB
:102B200005461BB100221D615A61F8BD1820FFF750
:102B30003DFD01220023A063C0E9042343F20E33CC
:102B400003800B2383810522034642814AF6CD3759
:102B500041F234264EF26D644DF6EC61002247805E
:102B60008680C48001811D615A61F8BD0C0000207F
:102B7000F8B51F4B1C68A16B91B10A691D484B69E0
:102B80001D4C00FB02F004FB0300A2FB04230132F6
:102B9000034443F1000323F00040C1E90423F8BDDE
:102BA0001820FFF703FD10A3D3E900230146A0631B
:102BB0000126002743F20E354AF6CD34C0E90467FA
:102BC00041F234204EF26D674DF6EC660D804C807C
:102BD00005250B248880CF8006480E814D818C818D
:102BE000C1E90423F8BD00BF2E7F954C2DF4515848
:102BF0000C0000202DF451582D7F954C38B5074C12
:102C0000002305460846236001F02AFB431C00D040
:102C100038BD2368002BFBD02B6038BD243F002437
:102C200010B580210446FFF7E7FE606440B1031F42
:102C300000227C3043F8042F8342FBD1002010BDDA
:102C40004FF0FF3010BD00BF436C0BB10020704748
:102C5000E6E700BF1F2909D810B5446C84B054B111
:102C600054F8210044F8212004B010BD162202605F
:102C70004FF0FF307047039002920191FFF7D0FFB1
:102C800020B9039B029A5C6C0199E9E74FF0FF3091
:102C9000EAE700BF1F2927D820B5426C82B005465D
:102CA000AAB152F8213093B1012B0ED0581C07D095
:102CB0000025084642F821509847284602B020BD1A
:102CC000162301202B6002B020BD0020F6E7284625
:102CD000019100F071F801990A460146284602B0B8
:102CE000BDE8204000F054B8162303604FF0FF30D9
:102CF000704700BF1F2926D820B5436C82B0054617
:102D0000BBB153F8212003EB810382B1501C0BD0DF
:102D1000012A06D0002508461D609047284602B0CB
:102D200020BD032002B020BD022002B020BD012042
:102D3000F5E70191FFF774FF10B96B6C0199E0E7BB
:102D40004FF0FF30EBE74FF0FF307047024B01468A
:102D50001868FFF79FBF00BF0C000020024B0A4617
:102D600001461868FFF776BF0C000020034B186877
:102D7000436C0BB10020704752E700BF0C000020ED
:102D8000024B01461868FFF7B5BF00BF0C000020DA
:102D900038B50B46074C05461146184600232360FC
:102DA00001F046FA431C00D038BD2368002BFBD04D
:102DB0002B6038BD243F002401F02ABA10B50C4620
:102DC000B1F90E1000F078FF002803DB636D0344B7
:102DD000636510BDA38923F48053A38110BD00BF98
:102DE000002070472DE9F0411646B1F90C201F462E
:102DF000D3050C46054607D500220223B1F90E1073
:102E000000F0DEFBB4F90C20B4F90E1022F480526D
:102E1000A2813B4632462846BDE8F04100F01ABB8D
:102E200010B50C46B1F90E1000F0CAFBA389421C84
:102E30000EBF23F4805343F480536065A38110BD1B
:102E4000B1F90E1000F084BB00000000000000008B
:102E50000000000000000000000000000000000072
:102E6000A2EB0300704700BF02780B78012A28BF4D
:102E70009A42F5D16DE9044540EA0104CDE90267C3
:102E80006FF0000C4FEA447212B380EA010414F0B0
:102E9000070F6AD100F0070420F0070004F00305D3
:102EA00021F007014FEAC505F0E8042314F0040FF0
:102EB000F1E804670CFA05F462EA040266EA040623
:102EC0000AD063EA0403624667EA0407664603E041
:102ED000F0E80423F1E8046782FA4CF582EA06047C
:102EE000A4FA8CF46CBB83FA4CF583EA0705A5FAC7
:102EF0008CF595B950E9022351E9026782FA4CF545
:102F000082EA0604A4FA8CF483FA4CF583EA0705F6
:102F1000A5FA8CF52543DBD09CB92DBAB5FA85F41A
:102F200024F0070427FA04F1DDE9026723FA04F329
:102F300003F0FF0001F0FF01FDE80445A0EB0100F4
:102F4000704724BAB4FA84F424F0070426FA04F192
:102F5000DDE9026722FA04F202F0FF0001F0FF014E
:102F6000FDE80445A0EB0100704714F0030F3CD1CD
:102F700010F0030428D150F8082B51F8083B82FACE
:102F80004CF582EA0305A5FA8CF55DB950F8042CDE
:102F900051F8043C82FA4CF582EA0305A5FA8CF557
:102FA000002DE8D02DBAB5FA85F424F0070423FAF1
:102FB00004F122FA04F202F0FF0001F0FF01FDE843
:102FC0000445A0EB010070474FEAC40420F0030061
:102FD00050F8082B21F0030151F8083B0CFA04F4D7
:102FE00062EA040263EA0403C9E710F003041AD09A
:102FF000A1EB040120F00300E40750F8042B06D0F5
:103000000FD28B785FFAA2F4E41A06D12BB1CB78F9
:103010005FFAB2F4E41A00D11BB920465DF8104BF8
:10302000704701F1040150F8042BCC0721F0030193
:1030300051F8043B48D824D222F07F4482FA4CF560
:1030400094EA1325A5FA8CF50AD165B951F8043B29
:1030500084EA0204B4EB036F0ED150F8042BEBE7C3
:103060004FEA132355E035F07F454DD10878FDE850
:103070000445C0F1000070474FEA126203F0FF03FD
:1030800047E002EA1C4482FA4CF594EA1345A5FA9B
:103090008CF50AD165B951F8043B84EA0204B4EB1B
:1030A000034F0CD150F8042BEBE74FEA134330E009
:1030B00015EA1C4528D10B884FEA124229E04FEA55
:1030C000124203EA1C4324E002F0FF0482FA4CF5AA
:1030D00094EA1365A5FA8CF50AD165B951F8043B59
:1030E00084EA0204B4EB032F09D150F8042BEBE778
:1030F0004FEA13630DE015F0FF0F05D10B684FEA9F
:10310000122223F07F4304E04FF00000FDE8044565
:10311000704712BA1BBA82FA4CF482EA0304A4FA8A
:103120008CF5B5FA85F402FA04F203FA04F34FEAD7
:103130001260FDE80445A0EB1360704780EA0102CD
:10314000844612F0030F4FD111F0030F32D14DF826
:10315000044D11F0040F51F8043B0BD0A3F10132E0
:103160009A4312F0803F04BF4CF8043B51F8043BF3
:1031700016D100BF51F8044BA3F101329A4312F06B
:10318000803FA4F101320BD14CF8043BA24312F072
:10319000803F04BF51F8043B4CF8044BEAD023466F
:1031A0000CF8013B13F0FF0F4FEA3323F8D15DF821
:1031B000044B704711F0010F06D011F8012B0CF8E9
:1031C000012B002A08BF704711F0020FBFD031F861
:1031D000022B12F0FF0F16BF2CF8022B8CF80020E8
:1031E00012F47F4FB3D1704711F8012B0CF8012B6B
:1031F000002AF9D1704700BF000000000000000065
:1032000090F800F06DE9024520F007016FF0000C26
:1032100010F0070491F820F040F049804FF00004CE
:103220006FF00700D1E9002391F840F000F10800A9
:1032300082FA4CF2A4FA8CF283FA4CF3A2FA8CF3E1
:103240004BBBD1E9022382FA4CF200F10800A4FA48
:103250008CF283FA4CF3A2FA8CF3E3B9D1E904239C
:1032600082FA4CF200F10800A4FA8CF283FA4CF3D3
:10327000A2FA8CF37BB9D1E9062301F1200182FA8D
:103280004CF200F10800A4FA8CF283FA4CF3A2FA93
:103290008CF3002BC6D0002A04BF04301A4612BAA1
:1032A000B2FA82F2FDE8024500EBD2007047D1E9A4
:1032B000002304F00305C4F100004FEAC50514F033
:1032C000040F91F840F00CFA05F562EA05021CBF04
:1032D00063EA050362464FF00004A9E72DE9F04FC9
:1032E000414C83B0D4F800C00190084600E0284665
:1032F000054615F8014B0CEB0406777817F0080724
:10330000F5D12D2C4BD02B2C04BF2C78851C1BB158
:10331000102B53D0994603E0302C5CD00A239946F9
:10332000002F0CBF6FF0004A4FF0004A4FF0000E24
:10333000BAFBF9F8704609FB18AB0EE0303CA3422B
:103340001BDDBEF1FF3F06D0404525D822D009FB4A
:1033500000404FF0010E15F8014B0CEB0406767897
:1033600016F0040FEAD116F0030606D0012E14BFA2
:1033700057263726A41BA342E3DCBEF1FF3F12D041
:1033800007B140421AB1BEF1000F15D1116003B070
:10339000BDE8F08F5C45DADD4FF0FF3EDBE72C78CF
:1033A0000127851CB3E7019922230B605046002AB0
:1033B000EDD0691E5046E9E78246FAE7302CA9D1E4
:1033C000287800F0DF005828A4D14FF010096C785D
:1033D0004B460235A4E72B7803F0DF03582BF4D0DB
:1033E000082399469CE700BF0800002010B4044C55
:1033F00013460A46014620685DF8044BFFF76EBF8E
:103400000C000020094B70B51C6805460E4624B11F
:10341000A36913B92046FEF7BFFF33462A46A168C9
:103420002046BDE8704000F01FB900BF0C0000202E
:1034300070B50D461646044618B183690BB9FEF700
:10344000ABFF33462A46A1682046BDE8704000F035
:103450000BB900BF70B50D46084C114606461A461A
:1034600028460023236000F009FF431C00D070BDF4
:103470002368002BFBD0336070BD00BF243F0024C5
:103480002DE9F0472E4F3C680546884691469A46FE
:10349000002C37D066681F2E12DD2A4B002B4AD035
:1034A0008C20FFF783F80446002844D03B68036073
:1034B000002338604360C0F8883075BB012314E0F6
:1034C0008DB1D4F8880030B3D0F8007140F8269060
:1034D0000123B34000EB86021F43022DC0F80071A8
:1034E000C2F880A008D0731C354602356360002006
:1034F00044F82580BDE8F087D0F804211343C0F8D4
:103500000431F0E7104B114C3C60002BC2D01B681B
:10351000C4F88830BEE70B4B6BB14FF48470FFF7F3
:1035200045F840B100276668C0F80071C0F8047122
:10353000C4F88800CAE74FF0FF30BDE8F08700BF4D
:10354000B8010024AD2500087C5601082C01002498
:1035500038B5074C002305460846236000F048FEB6
:10356000431C00D038BD2368002BFBD02B6038BD36
:10357000243F002438B50B46074C05461146184633
:103580000023236000F03CFE431C00D038BD2368BC
:10359000002BFBD02B6038BD243F002438B5074CEE
:1035A000002305460846236000F03AFE431C00D085
:1035B00038BD2368002BFBD02B6038BD243F00248E
:1035C00070B50D46084C114606461A46284600239B
:1035D000236000F035FE431C00D070BD2368002B33
:1035E000FBD0336070BD00BF243F00249368013BD3
:1035F000002B10B4936008DBCCB21368581C106029
:10360000197020465DF8044B70479469A34202DBB1
:10361000CCB20A2CF1D15DF8044B00F063BB00BFC3
:1036200093B1F8B514460F460646D51801E0AC42F2
:1036300008D03A4614F8011B3046FFF7D7FF431C69
:10364000F5D1F8BD0020F8BD00207047936810B593
:10365000144613B95360184610BD00F01FFC002338
:10366000A360636010BD00BF2DE9F04F9DB0894697
:1036700014460393824618B18369002B00F00A8137
:103680008A4B994500F00C81894B994500F00B81DC
:10369000884B994508BFDAF80C90B9F80C30180738
:1036A00040F1EE80D9F81030002B00F0E980302393
:1036B0008DF82A302378804E0021202209918DF840
:1036C00029200127002B00F08480252B254603D1DB
:1036D00017E0252B00F0858015F8013F002BF8D16D
:1036E000B5EB040B75D022465B4649465046FFF7C2
:1036F00097FF01306DD0099B2A785B440993002A1B
:1037000067D000234FF0FF320135049307930693EF
:103710008DF853301A93059204E0049A07FA03F3E4
:1037200013430493297805223046FEF751FF2C46B7
:10373000831B01350028F0D1049BD90644BF202209
:103740008DF8532021781A0744BF2B228DF853207F
:103750002A2969D0A1F13002092A0BD8079B14F855
:10376000011F03EB830302EB4303A1F13002092A9B
:10377000F5D907932E293FD0504D03222846FEF756
:1037800027FF38B1049B401B402202FA00F003439C
:103790000134049321784A488DF828100622013418
:1037A000FEF716FF002849D0464BF3B103AB009358
:1037B0004A46454B04A95046AFF300808046B8F115
:1037C000FF3F06D0099B434409932378002B7FF4E5
:1037D0007CAFB9F80C305B0659D409981DB0BDE830
:1037E000F08FB5EB040B8CD07DE7039B073323F000
:1037F000070308330393E5E761782A2904F1010000
:1038000026D0A1F130020023092A05930446B3D83B
:1038100014F8011F03EB830302EB4303A1F1300211
:10382000092AF5D90593A7E7039A116804320029FC
:1038300003921FDB0791617801349BE703AB009390
:103840004A46214B04A9504600F0E6F88046B6E708
:10385000039B1A680592002A03F104030393B8BF7F
:103860004FF0FF3204F10203AEBFA178A1780592B8
:103870001C4681E7494243F0020307910493DAE7CB
:103880004946504600F090FA00283FF410AF4FF040
:10389000FF30A3E7FEF780FD044B99457FF4F4AEBB
:1038A000DAF80490F9E6DAF80890F6E658560108D6
:1038B0003856010818560108D0640108D864010878
:1038C000DC640108000000002136000810B4044C3C
:1038D00013460A46014620685DF8044BFFF7C4BE54
:1038E0000C0000202DE9F0470C4691460A698968D2
:1038F000DDF820808A42B8BF0A46C9F8002094F853
:10390000431006461F4611B10132C9F80020236852
:1039100099065DD5D9F800200232C9F80020236845
:1039200013F0060F19461DD1E1688A1A002AD8BF84
:10393000194617DD04F1190A002505E0E368D9F8F6
:1039400000209B1AAB420CDD01235246394630461B
:10395000C047013005F10105F0D14FF0FF30BDE85F
:10396000F087216894F84330003318BF01238A069A
:103970000AD5E1185A1C302081F84300224494F8FB
:10398000451082F84310023304F1430239463046B1
:10399000C0470130E1D0236803F00603042B29D08F
:1039A000A36822699342C8BF4FF0000930DD9B1A1B
:1039B00099441A34002501E04D4529D001232246BF
:1039C00039463046C047013005F10105F4D1C4E75E
:1039D00013F0060F08D1E168D9F800208A1A002AEE
:1039E000D8BF1946A6DCBDE794F84330003318BFB2
:1039F0000123C9E7D9F80010E068A3682269A0EBA9
:103A00000109934229EAE979D1DCB9F1000FD0D15B
:103A10000020BDE8F08700BF2DE9F0430C46097E89
:103A200085B06E29064617460C98984604F1430C5B
:103A300055D00FD8632900F01B8100F2D6800029F1
:103A40005CD0582940F0E88084F845102268DFF8FF
:103A500060E213E0732900F0FD8000F289806F2995
:103A600000F0E480702940F0D780226842F0200204
:103A700022607823DFF83CE284F8453003681506BD
:103A800003F1040100F1FF8055064BBF1B881B6842
:103A900001600160D00744BF42F020022260002B89
:103AA00040F09580226822F020022260102100223E
:103AB00084F843206068A0600028C0F28D802268EE
:103AC00022F004022260002B67D1002840F086809B
:103AD000654608296FD0ACEB0503236111E023682C
:103AE0001A0600F1D38013F0400F0368626903F1F6
:103AF000040101601B6814BF1A801A600023654628
:103B00002361CDF800803B4603AA21463046FFF7EB
:103B1000E9FE013021D02A46236939463046C047A4
:103B200001301AD02368E06813F0020F039B19D00C
:103B3000C21A002A16DD04F11909002504E0E06824
:103B4000039BC21AAA420DDD01234A46394630467C
:103B5000C047013005F10105F1D14FF0FF3005B04C
:103B6000BDE8F0839842B8BF184605B0BDE8F083C1
:103B700075295BD078294FD122687AE76168A16006
:103B80002D200029C3F1000384F8430021DB22F03B
:103B90000402DFF81CE122600A216546B3FBF1F262
:103BA00001FB123013461EF8002005F8012D002BF2
:103BB000F4D108298FD12368D9078CD5626823698D
:103BC0009A4288DC302305F8013C013D83E710214F
:103BD0006DE7DFF8DCE00A21002BDED19EF8003033
:103BE00084F8423004F1420573E7642901D0692961
:103BF00012D122680368150603F1040152D4550658
:103C00004BBFB3F900301B6801600160002BB5DBCE
:103C1000DFF89CE00A214DE7012384F8421023617C
:103C200004F14205002384F843306AE723681A064A
:103C300033D413F0400F036803F1040215BF1B884F
:103C40001B68026002606F2914BF0A210821DFF897
:103C500060E02CE703686268191D01601D6800219F
:103C60002846FEF7B5FC00B3401B60602061D9E731
:103C700003681A68191D0123016004F1420584F8E4
:103C800042202361CEE701601B6803E70368626995
:103C9000191D01601B681A6030E703681A1D026075
:103CA0001B68D0E701601B68B0E76068DEE700BF13
:103CB000E4640108F864010870B50D46084C11462B
:103CC00006461A4628460023236000F0C1FA431C2A
:103CD00000D070BD2368002BFBD0336070BD00BFE7
:103CE000243F0024F8B50D461446064610B18369FA
:103CF000002B42D0254B9C4244D0254B9C4243D0C4
:103D0000244B9C4208BFF468A389A269A2601A07E9
:103D100022D5236903B322686169D31AEDB28B42BD
:103D20002F4621DA0133A168501C0139A1602060BF
:103D3000157062699A4206D0A389DB0701D50A2D66
:103D400001D03846F8BD21463046FEF7E9F9002893
:103D5000F7D04FF0FF37F4E72146304600F024F863
:103D60000028F6D12369D6E721463046FEF7D8F978
:103D70000028EED122680123D5E7FEF70DFB034BA7
:103D80009C42BAD17468BFE7B468BDE758560108D1
:103D90003856010818560108024B0A4601461868B1
:103DA000FFF7A0BF0C000020384B70B51D68064619
:103DB0000C4615B1AB69002B42D0354B9C4245D027
:103DC000344B9C4258D0344B9C4208BFEC68B4F949
:103DD0000C2093B219070CD52069A8B113F0010289
:103DE0001ED0636900225B42A361A260F0B1002093
:103DF00070BDDD0642D558072AD4206942F0080379
:103E0000A3819BB20028E9D103F42072B2F5007FB0
:103E1000E4D030462146FEF785FBA3892069DDE723
:103E2000990758BF6269A2600028E0D1B4F90C304C
:103E30001A06DDD543F04003A3814FF0FF3070BD7B
:103E40002846FEF7A9FA124B9C42B9D16C68BEE72E
:103E5000616B51B104F14403994204D03046FEF73E
:103E600083FDB4F90C2000236363002320696360A1
:103E700022F024022060C1E7AC68A8E742F04002CB
:103E8000092333604FF0FF30A28170BD0C00002089
:103E90005856010838560108185601089368002B37
:103EA00073D02DE9F04F8B8983B00C461907009031
:103EB000164626D5226922B313F0020035682CD0AD
:103EC0004FF00009B04FC846B246B84543464A468F
:103ED00028BF3B460098B8F1000F50D0216AA66A6F
:103EE000B047002858DDDAF808301B1A8144A8EBE7
:103EF0000008CAF80830002BE7D1002003B0BDE865
:103F0000F08F21460098FFF74FFF002840F03381E3
:103F1000A389356813F00200D2D113F0010945D10D
:103F20004F46019637B39A05D4F8088040F1838054
:103F30004745C346C0F0AB8013F4906F40F0AC80AF
:103F40002068BA465A464946FEF75CFCA2682368D8
:103F5000A2EB08025B44A2602360019A9368A3EB82
:103F60000A03D144A7EB0A079360002BC5D0A389AD
:103F7000002FD8D1D5F800906F680835D2E7D5F872
:103F80000090D5F8048008359FE70020704721464F
:103F90000098FEF7C5F870B3B4F90C3043F0400355
:103FA0004FF0FF30A38103B0BDE8F08F8146334668
:103FB0004E46A8469A464D464EB380B320682369C4
:103FC0006269B145CB4628BFB34698425F4604D9E3
:103FD000A36813449B4500F3A68093454BDB13462F
:103FE000A76A216A00982A46B847071ED4DDB9EBB4
:103FF0000709CCD00120DAF80830DB1B3D44F61B62
:10400000CAF80830002B3FF478AF002ED5D108F164
:10401000080313E9600098460833002EF9D03246B1
:104020000A212846FEF7D4FA002800F0A1800130CA
:10403000A0EB0509C2E720682369984202D86369AA
:104040009F425DD2B84528BFB84642464946FEF772
:10405000D9FBA3682268A3EB08034244A360226053
:104060000BB1C24679E721460098FEF759F80028BF
:1040700092D1C24671E75A462946FEF7C3FBA268B1
:104080002368A2EB0B025B44A2602360AFE72068C9
:10409000B846BA46BB4655E762692068216902EB1B
:1040A0004208A0EB010A08EBD8780AF101004FEAB8
:1040B000680838444045424684BF804642465B0516
:1040C00044D511460098FEF797FC8346002855D04A
:1040D00052462169FEF7FCFAA38923F4906343F06A
:1040E0008003A3810BEB0A00A8EB0A03C4F810B00D
:1040F000C4F814802060A360B846BA46BB4621E7E6
:104100006FF00041B94228BF39464A4691FBF3F1AE
:104110000098A66A03FB01F3216AB047B0F1000AD8
:104120003FF71BAF38E71A4629460193FEF76AFBB3
:104130002268019B00981A4422602146FDF7F0FF97
:10414000019B00287FF428AF1F4650E7009800F03D
:104150001DF883460028C5D1009D21692846FEF739
:1041600003FCB4F90C300C2223F080032A6015E71D
:1041700006F1010922E74FF0FF30BFE6009A0C2359
:104180001360B4F90C3009E700FCFF7FF8B5144662
:10419000F9B1C2B106460D4600F020F8844201D8BC
:1041A0002846F8BD21463046FEF726FC074670B18A
:1041B00022462946FEF78CFA294630463D46FEF750
:1041C000D3FB2846F8BDFEF7CFFB2546E8E70546BA
:1041D000E6E71146BDE8F840FEF70EBC51F8040CC6
:1041E0000028A0F10400BCBF0B58C018704700BFE6
:1041F000024B58221A604FF0FF307047243F0024D2
:10420000024B58221A604FF0FF307047243F0024C1
:10421000024B58221A604FF0FF307047243F0024B1
:10422000024B58221A600020704700BF243F002430
:10423000024B58221A604FF0FF307047243F002491
:10424000024B58221A604FF0FF307047243F002481
:10425000024B58221A604FF0FF307047243F002471
:10426000044A05491368002B08BF0B461844106028
:1042700018467047BC010024283F0024024B5822F6
:104280001A604FF0FF307047243F0024FEE700BF64
:10429000BFF34F8F0549064BCA6802F4E06213432F
:1042A000CB60BFF34F8F00BFFDE700BF00ED00E024
:1042B0000400FA0510B5044610F0C2FA204610BDFD
:1042C00010B5064C082120460BF000FB0128F9D060
:1042D000FA2006F019FC012010BD00BF525701085A
:1042E00000F1080373B5044603600D46E1B10846CA
:1042F000FEF786FF0F2805EB0006019007D9002284
:1043000001A9204610F082FA019B2060A36032468A
:104310002946206810F0DCFA019B22680021204623
:104320006360D15402B070BD014810F03DFA00BF87
:104330006B5701082DE9F041064600240B4D0C4F48
:10434000DFF8308095E80C009B1A9B107B439C4261
:104350000AD21C20314600FB042010F074FC08B97E
:10436000C8F80C400134EDE7BDE8F081A816002440
:10437000B76DDBB600FC0038154838B52DED028B63
:104380000478BFF35B8F14F001041ED10FF035FDEC
:10439000D8B1104D9FED108ADFED0F0AB0EE481A2C
:1043A0002819B0EE600A0FF031FB0C34B4F5167F1B
:1043B000F2D1BDEC028B0648BDE838400FF02CBDB1
:1043C00003480FF026FD0FF02AFDBDEC028B38BD2F
:1043D000C0010024C401002400000000764B2DE938
:1043E000F0411C680523054698B0637708232046F2
:1043F000724EA3770C23724FE377FF23DFF8D4814B
:1044000084F820300FF09BF82846FFF7B5FF002511
:1044100064230A22657712A984F820302046A57704
:10442000E5771493F0231292139515930FF05EF82D
:1044300096E80A005B1A9B107B439D425AD21C23CC
:10444000D8F80C2003FB05115023954263774FF0F9
:104450006403A3774FF07803E3774FF0FF0384F80A
:10446000203004D1EB22E3776277F522A2774B6804
:104470000CA80022043B10F06DFC0CA912A810F04F
:1044800019FC50490A234FF0000C0DF1080ED1ED34
:10449000007A6B4391ED017AFDEEE77A7333CDF844
:1044A00020C0CDF824C017EE902A07EE903A4FF4C2
:1044B0007A73F8EE677A06920A930B9308AB77EE5D
:1044C000C77A0FCBFDEEE77ACDED077A8EE80F00C5
:1044D0000123CDF804C03C4A12A90093204606AB44
:1044E0000FF06AFA12A8013510F0AAF90CA810F022
:1044F000A7F99DE72046354F0FF084F8344933483B
:1045000010F0A1FB002848D09623002512A92046D0
:1045100084F82030D723657702AEA577E57713932B
:104520004FF4A07312951493192315930EF0DEFF28
:10453000FF23394612A86377A377E37784F8203006
:1045400010F0B8FB05230C950893DC230D95099317
:104550004FF47A730E930F930CAB0FCB86E80F00DA
:1045600001230195184A12A90093204608AB0FF0C9
:1045700023FA12A810F064F9BA694FF49B73E6218C
:1045800020465343FA69139112A993FBF2F30522D3
:104590001493129215920EF0A9FF18B0BDE8F081A5
:1045A00012A810F04DF90FF03AFC12A810F048F9DB
:1045B0000CA8F6E7FCE700BF7C5E0108A816002403
:1045C000B76DDBB6A016002420610108BC160024DC
:1045D0000B63010800FC00382DE9F041ADF5127DB8
:1045E0000168012206A809F0E3F9002856D1099FC5
:1045F00068462E493E0CFFF773FE69462C4801368B
:1046000010F06BF92A4C0023E661A3610DF0A2FDC6
:104610000025684610F014F928040DF05FF9A56133
:1046200001350DF097FDAE42F6D822496846FFF7F6
:1046300057FE69461E4810F050F90023E761A36158
:104640000DF088FD00251C4E6846A84610F0F8F8CD
:10465000BD4215D26B464FF48052314606A8CDF8C4
:10466000008009F0B5FAC8B9009A314628460DF025
:1046700061F998B9009B1D44A5610DF06BFDE7E75A
:1046800006A809F05EFC0D49094810F054FA0DF037
:1046900061FD01200DF5127DBDE8F0810020F9E7F4
:1046A000684610F0CDF80FF0BAFBF9E7185701088B
:1046B000BC16002431570108940600240B6301083E
:1046C000F8B5394C394D2268394F12F00403DFF840
:1046D000F4E017BF2868184680F00400C0F380009B
:1046E00012F0080607D0296881F00801C1F3C00163
:1046F00023B93B6006E0002B54D031463B680133C0
:104700003B6016B1DEF800600136192BCEF8006070
:1047100082BF002301203B60192E264E82BF00235A
:104720000121CEF8003012F010021EBF2A6882F07C
:104730001002C2F3001210B1F368013BF36011B133
:10474000F3680133F3601C4BB1EE046AF76809CBE0
:104750001B1A9910194B4B4397FBF3F103FB117193
:10476000194491FBF3F703FB17110A234B43F16044
:1047700007EE903A124EF8EE677AD6ED016A77EEC0
:10478000E67A87EE867A77EE267AC6ED017A32B13E
:104790001C2303FB0100FFF71FFF0EF093FA2368B1
:1047A0002B60F8BD1946ABE7243E00249816002480
:1047B0009C16002400FC0038A8160024B76DDBB658
:1047C000A01600249416002408B510F02EFAC00F8D
:1047D00008BD38B5044610460B464A6841681D6856
:1047E0000A4403F108018D4214BF99680F218A42DF
:1047F00012D900F1080105688D4214BF81680F21AC
:104800008A4209D81A46002110F0B2F90146204622
:1048100010F0C9F8204638BD0146184610F0D4F90A
:10482000F4E738B504460D46AC4204D020461C34AB
:1048300010F006F8F8E738BD10B5044603C8FFF7D6
:10484000F0FF206808B10FF0E0FB204610BD38B53E
:104850000D46044610F0A7F8AB692046A36138BDA9
:104860002DE9F84390E8180005468846E41AA3109D
:10487000294C5C4314BF23460123E418274B01D283
:104880009C4245D91C461C2060430FF02BFC064679
:1048900095E88800FF1AF71906D04146384610F00F
:1048A00009FAD8F81830BB61304695E88002B9455E
:1048B00000F11C0806D010B13946FFF7C8FF40468A
:1048C0001C37F4E795E80300FFF7ABFF286808B151
:1048D0000FF09BFB1C2303FB046485E84001AC60E4
:1048E000BDE8F8830FF0B0FB56B968682B68C01AB2
:1048F0000FF0A6FF0FF052FB0FF0D0FB0FF08FFA76
:1049000030463146FFF78DFF30460FF07EFBF1E772
:10491000002CB8D12646BBE7B76DDBB64992240917
:1049200038B50D46044610F058F8AB692046A3612F
:1049300038BD30B589B00446014601A8FFF787FFAE
:104940001C3C01A8214604F11C05FFF73DFF20B1E6
:1049500021462846FFF7E4FFF2E701A92846FFF7C2
:10496000DFFF01A80FF06CFF09B030BD88422DE9D0
:10497000F047064688B088462BD000F11C04DFF8CB
:1049800058904445274624D031462046FFF71CFF67
:10499000D8B1A51B214601A8AD10FFF758FF09FBB0
:1049A00005F5002D08DDA7F11C0A3846013D5146EA
:1049B0005746FFF7B5FFF4E701A93046FFF7B0FF10
:1049C00001A80FF03DFF1C34DBE72046FFF7B1FFE5
:1049D000F9E708B0BDE8F087B76DDBB62DE9F04F19
:1049E00017469946013A02234FF01C0B8BB005463F
:1049F00088460C46DA4692FBF3F39C42019316DAA2
:104A0000661C7600721E0BFB06500BFB02510092D7
:104A1000FFF7DAFE009A002818BF16460AFB04507A
:104A20000AFB06513446FFF77BFF019BE5E7FB07D6
:104A30000ED4023F022297FBF2F7BC4208D11C21A0
:104A400001FB04506400013401FB0451FFF768FFCF
:104A5000494603A8FFF7FBFE661E02234FF01C0920
:104A600096FBF3F61F46A04510DA09FB065A03A988
:104A70005046FFF7A9FE48B109FB04505146FFF725
:104A80004FFF731E344693FBF7F6ECE71C2003A997
:104A900000FB0450FFF744FF03A80FF0D1FE0BB05A
:104AA000BDE8F08F70B5054690B00C46164611462D
:104AB00002A8641BFFF7CBFE29463046FFF730FF04
:104AC0000C4AA41002A909A85443FFF7C0FE4FF0F6
:104AD00000030021224628468DF8003009ABFFF77D
:104AE0007DFF09A80FF0ACFE02A80FF0A9FE10B0E0
:104AF00070BD00BFB76DDBB630B589B00C4605465A
:104B0000014601A8FFF7A3FE21462846FFF708FF4C
:104B100001A92046FFF704FF01A80FF091FE09B09C
:104B200030BD00002DE9F04F4FF01C0A93B0054650
:104B300090460E46DFF8149100EB0A07741BB4F59B
:104B4000EE7F7FDBA410B8F1000F2ED109FB04F437
:104B50004FF01C08A71E7F1008FB075104A8FFF7A1
:104B600076FE04A90BA8FFF772FE4FF0000328465B
:104B700022468DF8003039460BABFFF72FFF0BA80C
:104B80000FF05EFE27B104A8013F0FF059FEE3E7E6
:104B900004A80FF055FE731B1C3E372B52DD324626
:104BA00031462846FFF77EFFF5E709FB04F4A6F13E
:104BB0001C0B384608F1FF3864100AFB04542146E8
:104BC000FFF702FE594650B32046FFF7FDFD08B13E
:104BD000214605E059463846FFF7F6FD18B3594619
:104BE0003C46B3462846FFF787FF29462046FFF795
:104BF000EBFD28BBABF11C03194628469B460393EB
:104C0000FFF7E2FD039B1C3B0028F5D15C4513D365
:104C10003146424620462646FFF784FF8EE7384657
:104C2000FFF7D2FD08B13946DAE759462046FFF7CB
:104C3000CBFD0028CCD0D2E759462046FFF75CFFD9
:104C40001C34D2E713B0BDE8F08F00BFB76DDBB600
:104C50002DE9F0434C4C91B0256861682846FFF778
:104C6000E0FD4A4B656009A849491D68FFF738FB1C
:104C700009A96846A84709A8464F0FF0E1FDA046DC
:104C80009DE86000AE4243D0294609A810F012F812
:104C9000AB69394603A80F93FFF722FB049B0A98E0
:104CA00083420ED80399013B0138099A0B4401391C
:104CB00002448B4208D013F801E912F80109864535
:104CC000F7D04FF0000901E04FF0010903A80FF001
:104CD000B7FDB9F1000F11D0D4F80490A36899453D
:104CE00011D0B9F1000F06D009A948460FF0E2FF34
:104CF0000F9BC9F8183063681C33636009A81C3522
:104D00000FF09EFDBEE709A94046FFF7A9FDF5E7B4
:104D10006846FFF791FD94E86000AE4224D0741B12
:104D20001D4A31462846A3105A43B2FA82F2C2F114
:104D30001F025200FFF7F6FEB4F5EE7F0EDB05F51D
:104D4000E0744FF0000228462146FFF70FFEA6420E
:104D50000AD020461C34FFF7ECFDF8E74FF00002C4
:104D600031462846FFF702FE11B0BDE8F08309A8DE
:104D70000FF066FD0FF053F809A80FF061FD6846CB
:104D8000FFF75AFDF6E7FAE7A8160024FC3D0024D9
:104D90000B63010880560108B76DDBB67FB5184B71
:104DA00001201B689847FFF753FF16496846FFF735
:104DB00097FA154968460BF033FF68460FF040FD3F
:104DC00012496846FFF78CFA114968460BF028FF34
:104DD00068460FF035FD0F496846FFF781FA0E4926
:104DE00068460BF01DFF68460FF02AFD07B05DF81E
:104DF00004FB68460FF024FD0FF011F8F9E7F8E71F
:104E0000D43D00245B570108914200086157010816
:104E1000C1420008665701081D4E000803282DE90D
:104E2000F04F04469BB00D46164633D1834908A87F
:104E3000FFF756FA824908A80FF0CCFE01460EA8EB
:104E40000FF0B1FD7F4914A8FFF74AFA14AA0EA982
:104E500002A8FFF7BEFC14A80FF0F2FC0EA80FF09A
:104E6000EFFC08A80FF0ECFC02A80CF063F97649FF
:104E700076480FF060FE0DF06DF9754809F061F8A5
:104E8000402200216E48FDF721FD02A80FF0D8FC5A
:104E90000224B0E00028FBD1694F97F800B0BBF1C5
:104EA000000F5CD13846DFF8C4A1FEF747F9284669
:104EB000FEF7A6F9431C81461D442846FDF780F8FD
:104EC000CAF800002846FEF79BF9624B80460A228A
:104ED00039465F48C3F800B008F06AFD20B35E4968
:104EE00008A8FFF7FDF9394608A80FF073FE014640
:104EF0000EA80FF058FD594914A8FFF7F1F914AAAC
:104F00000EA902A8FFF765FC14A80FF099FC0EA8E3
:104F10000FF096FC08A80FF093FC02A80CF00AF919
:104F20004B4809F00EF8B0E74D4914A8FFF7D8F93F
:104F300014A94648DAF800700FF0CFFC434B00226A
:104F4000DF619A610DF006F9023E08F10100A6EB5F
:104F50000906054414A8A6EB08060FF071FC002E04
:104F600049D0294601AB3246394808F0DDFE0546F6
:104F700020B33C4908A8FFF7B3F9314908A80FF05E
:104F800029FE01460EA80FF00EFD374914A8FFF7C1
:104F9000A7F914AA0EA902A8FFF71BFC14A80FF08A
:104FA0004FFC0EA80FF04CFC08A80FF049FC02A81B
:104FB0000CF0C0F8264808F0C4FF66E7254A0199BE
:104FC00013680B441360294A1268934217D11E4993
:104FD00001241E480FF0AFFD0DF0BCF8FFF738FEBE
:104FE0001748FFF7A7F91A4808F0ABFF40222946F7
:104FF0001348FDF76BFC20461BB0BDE8F08F134A49
:1050000093610DF0A7F8F6E714A80FF019FCFFE77D
:105010000EA80FF015FCFFE708A800E002A80FF0AB
:105020000FFC0EF0FCFEEFE7F2E7F5E7F6E714A859
:10503000F5E7E9E7ECE7EFE7F0E700BF85560108A1
:1050400054060024945601080B630108BC16002482
:105050002404002420040024AC560108C156010891
:10506000DB560108F15601080A5701081C04002408
:105070001048114938B5002400F108030F4D0360B2
:105080002A46446004728461C4610EF0AFFE0C488D
:105090002A460C490460446084600EF0A7FE0A4B67
:1050A0000A4A0B491A6000225A600A4B19605A607A
:1050B00038BD00BFBC160024B54200080000002027
:1050C000A816002439480008A01600240000A041BA
:1050D0000000A040B41600242DE9F04FD3B04C22BC
:1050E000002110A8FDF7F2FB202200210DEB0200A9
:1050F000FDF7ECFBBC22002123A8FDF7E7FB1822FB
:10510000002102A8FDF7E2FB022005F06BFC002362
:1051100000934C4B9A6942F440429A619A6902F4B6
:1051200040420092484AD16A41F00101D162D26AFC
:1051300002F001020092009A9A699204FCD5434E53
:10514000402700240225B36A4FF001094FF0040AFA
:105150004FF0220823F003030DEB07004FF4806BA0
:10516000B3623C2314971C930C23CDF8408020930A
:10517000CDF84C90CDF8589019951A94CDF86CA0B4
:105180001D951E951F952194229402F015FE3F2334
:10519000514608A80C97089303230D9709930823F9
:1051A0000F9720270B930A94CDF838B003F012F92B
:1051B000274B23A8CDF890A023930923CDF89890EE
:1051C0002593C023279529934FF4805328952B933B
:1051D00081232A972D9335232C9730934FF4403316
:1051E0002E953B934FF440132F9544934FF48043F7
:1051F000CDF8C4B050933294339435943A94429499
:1052000048944B9403F0FEFAD6F8EC3002A82B43F6
:10521000C6F8EC30D6F8EC3002942B400494CDF86C
:1052200018800193019B4FF00053079703934BF6AF
:105230007F33059304F048FA05F0F8FB53B0BDE85E
:10524000F08F00BF00480258000400580044025884
:1052500010300E32F8B5BFF34F8FBFF36F8F354B61
:105260000021C3F85012BFF34F8FBFF36F8F5A69FD
:1052700042F400325A61BFF34F8FBFF36F8FC3F810
:105280008410BFF34F8FD3F8802043F6E076C2F34B
:10529000C904C2F34E32A507520102EA060E28469F
:1052A00021464EEA0007013900F14040C3F8607220
:1052B0004F1CF6D1203A12F1200FEED1BFF34F8FE1
:1052C0005A6942F480325A61BFF34F8FBFF36F8F38
:1052D000194C05F0D9FBFFF7FFFE0AF039FD0BF082
:1052E00025F80CF0AFF80CF083FD0CF01FFD0CF06E
:1052F000D9F80CF033F90CF021FA0BF02FFF0BF07A
:105300008FFF0CF0CDFB0CF0FBFB0CF0C3FD09F0A4
:10531000B7FD0CF01DFE0AF0BFF80CF0B3FB0CF06B
:1053200067FF236898470DF0ADFC0BF091FB2368F5
:105330009847F6E700ED00E0DC3D00247047704739
:10534000FEE7FEE7FEE7FEE770477047704705F0AF
:10535000C9BB0000014805F0ABB800BF48300024CD
:10536000014805F0A5B800BFC0300024014800F096
:105370006FB800BF802F0024014806F001B800BFBD
:10538000E41B0024014800F063B800BFE42F0024B0
:105390001E4B07B5D3F8F420032042F00202C3F8F5
:1053A000F420D3F8F43003F002030193019B00F0E2
:1053B000B1FF00226FF00B00114600F0BDFF00228C
:1053C0006FF00A00114600F0B7FF00226FF00900ED
:1053D000114600F0B1FF00226FF00400114600F00A
:1053E000ABFF00226FF00300114600F0A5FF002282
:1053F0006FF00100114600F09FFF00224FF0FF30D8
:10540000114600F099FF03B05DF804FB0044025818
:1054100030B5CC0D1430C1F30451072504F0040459
:105420008D4002FA01F1235823EA05031943215064
:1054300030BD806800F0010070478068C0F38000D4
:10544000704708B5806B0DF043FA08BD7047000047
:10545000F8B502680446954B15689A42566800F004
:105460009180934903F540739248824218BF0B46DE
:105470009F68AB0707F01F070ED5B0070CD5636D0B
:10548000D90603D4636D43F400636365204600F0DE
:10549000A5FE236802221A606A0701D5730703D4A8
:1054A000280739D5310737D5636DDA0603D4636D24
:1054B00043F4007363652068C36813F4406F25D11B
:1054C0007C4B984208D1092F97BF40F2212301233A
:1054D000FB40DB43DA0757D4C3689B0416D4036848
:1054E000190713D5FFF7A9FF002850D12268536888
:1054F00023F00C035360636D23F480736365636D65
:10550000DA0403D4636D43F00103636520460DF0B4
:10551000F7F923680C221A60AB0601D5B00603D454
:1055200069065BD5720659D5636DDB0603D4636DDE
:1055300043F40053636523685E4AD86C9342D9688C
:1055400000F4C07001F4406103D117B1BA1F012A01
:1055500026D8DA6828B190013AD4002938D19104CC
:1055600036D41968480633D5910231D49A681207A7
:105570001FD5636D43F010036365A36D43F0010312
:10558000A36525E04C4B73E7484BDB68A5E7636DEB
:1055900043F010036365A36D43F00103A365B5E712
:1055A000424AD268D6E7444B57E0D36813F0030F62
:1055B00056E05A6822F060025A60636D23F480530B
:1055C0006365636DDB0503D4636D43F001036365BD
:1055D000204600F0FFFD236860221A6028060BD5E4
:1055E000310609D5636D204643F480336365FFF7C8
:1055F0002DFF236880221A60EA050CD5F3050AD531
:10560000636D204643F40033636500F0E5FD2368D5
:105610004FF480721A60A8050CD5B1050AD5636DE8
:10562000204643F48023636500F0D7FD23684FF4E0
:1056300000721A60EA0617D5F30615D5236B43B33B
:105640002268002FB1D0194B9A42ACD0184903F50B
:1056500040731848824218BF0B469B6813F4404FB2
:1056600017D1236810221A6068051ED571051CD554
:10567000636D4FF48062204643F480436365A36DFD
:1056800043F00803A36523681A60BDE8F84000F002
:10569000A2BD636D204643F480636365A36D43F050
:1056A0000203A3650DF012F9DBE7F8BD002002400C
:1056B000006302580021024000230240836B5A6DB0
:1056C00012F0500F5A6D10B521D142F400725A6594
:1056D0001A681168080707D5D16811F4406F12D114
:1056E000D26812F4005F02E0D26812F0030F0AD110
:1056F0005A6D22F480725A655A6DD10403D45A6DE2
:1057000042F001025A6518460DF0FAF810BDD206B3
:1057100003D518460DF0DAF810BDDB6CBDE810407B
:10572000DB6C1847806B08B5436D43F0400343655D
:10573000836D43F0040383650DF0C8F808BD0000D5
:105740000023F7B50193044690F850300D46012B25
:1057500000F06781012380F850300068FFF76DFE8C
:10576000002840F058810A68C2F31300910E68BB0C
:1057700001F01F02206893401F2701F01F01C2693A
:1057800000F1300E13436A68960902F01F02C361EC
:1057900006F00C069740914056F80E3023EA0703B6
:1057A000194346F80E10FFF748FE06462068836846
:1057B0001A0740F138812068FFF73BFE00283BD0F4
:1057C0000020002384F8503003B0F0BD92FAA2F21A
:1057D000B2FA82F202F01F02CCE711F0100FD96882
:1057E00000F03381490801F0080131E1196E920699
:1057F00001F0F841914203D1196E21F00041196680
:10580000596E01F0F8418A4203D1596E21F00041EE
:105810005966996E01F0F8418A4203D1996E21F0E0
:1058200000419966D96E01F0F8418A42C3D1DA6E1F
:1058300022F00042DA66BEE7EE682B68206806F0C8
:10584000180EA04AC3F31307D0F8C01022FA0EF2C4
:1058500021EA07011A400A43C0F8C0209A4A96423A
:1058600047D1D7B99E0E0121013606F01F02B606B8
:10587000092A2CD906F0F846914041EA0602002F89
:1058800040F093809B0E013303F01F0303EB4301B1
:105890001E39090541F0007127E093FAA3F2B2FA2C
:1058A00082F2013202F01F02092A6DD893FAA3F6A0
:1058B000B6FA86F60136B60606F0F84693FAA3F174
:1058C000B1FA81F1013101F01F02012101E006F07E
:1058D000F846914041EA0602002F50D1990E01315D
:1058E00001F01F0101EB410109051143AA68FFF70F
:1058F0008FFD2B68002BBFF663AF226873498A4285
:1059000058D07348734B744EB24208BF03468A4264
:105910009B6803D070498A4240F0CC806B48FFF707
:1059200088FD02466C48FFF784FD02430CBF01204E
:105930000020002869D0296803F0E072674881429E
:105940003AD11B023FF53CAF2168654B99427FF489
:1059500037AF60498B6823F0E07343F400031343CF
:10596000604A8B60604B1B68B3FBF2F35B000193F2
:10597000019B002B3FF424AF019B013BF7E793FA17
:10598000A3F1B1FA81F1AAE793FAA3F2B2FA82F293
:105990000132920602F0F84693FAA3F1B1FA81F1CE
:1059A000013101F01F02012166E793FAA3F3B3FA74
:1059B00083F368E7464BAAE74C48814211D113F0C4
:1059C00080707FF4FDAE2168454B99427FF4F8AEBC
:1059D00040498B6823F0E07343F0807313438B607E
:1059E000EFE6434881427FF4EBAE13F480007FF48E
:1059F000E7AE21683A4B99427FF4E2AE35498B68B5
:105A000023F0E07343F48003E8E7636D012043F083
:105A100020036365D5E6626D184642F02002626598
:105A2000CFE60220D0E6002E7FF4C5AEAA68296832
:105A3000FFF7EEFC2F4B6A691B6803F07043B3F16C
:105A4000805F2368D9687FF4C8AEC1F38201490042
:105A50002F6902FA01F12A68042F3FF4C7AE03F15F
:105A6000600002F0F84250F827E00EF0004E42EAE3
:105A70000E020A4340F827206A7E2969012A50F85D
:105A8000212014BF00274FF0004722F000423A4384
:105A900040F821202A7E2869012A1A6900F01F0097
:105AA00008BF4FF4006622F4F04206FA00F01043FB
:105AB000186180E60A48FFF7BCFCB0FA80F04009A4
:105AC00037E700BFFFFF0F000000FF470020024044
:105AD000002302400063025800210240000084CBF2
:105AE00000600258400D030088010020000052C7EA
:105AF0000000B8CF0010005C70B504460068FFF7E6
