:020000040800F2
:1000000000000220B59700080F1500081115000820
:10001000131500081515000817150008000000004A
:10002000000000000000000000000000191500089A
:100030001B150008000000001D1500081F15000812
:10004000319800083198000831980008319800086C
:10005000319800083198000831980008319800085C
:10006000319800083198000831980008319800084C
:10007000319800083198000831980008319800083C
:10008000319800083198000831980008319800082C
:10009000319800083198000831980008319800081C
:1000A000319800083198000831980008319800080C
:1000B00031980008319800083198000831980008FC
:1000C00031980008319800083198000831980008EC
:1000D00031980008319800083198000831980008DC
:1000E000319800083198000800000000319800089D
:1000F00031980008319800083198000831980008BC
:1001000031980008319800083198000831980008AB
:10011000319800083198000825150008319800082A
:10012000319800083198000831980008319800088B
:10013000319800083198000831980008319800087B
:1001400000000000000000000000000000000000AF
:10015000319800083198000831980008319800085B
:10016000319800083198000831980008319800084B
:10017000319800083198000831980008319800083B
:10018000319800083198000831980008319800082B
:10019000319800083198000831980008319800081B
:1001A000319800083198000831980008319800080B
:1001B00031980008319800083198000831980008FB
:1001C00031980008319800083198000831980008EB
:1001D00031980008319800083198000831980008DB
:1001E00031980008319800083198000831980008CB
:1001F00031980008319800083198000831980008BB
:1002000031980008319800083198000831980008AA
:10021000319800083198000831980008319800089A
:10022000319800083198000831980008000000005B
:10023000319800083198000800000000319800084B
:10024000319800083198000831980008319800086A
:10025000319800083198000831980008319800085A
:10026000319800083198000831980008319800084A
:10027000319800083198000831980008000000000B
:1002800031980008000000003198000800000000CC
:08029000000000003198000895
:1002980010B5054C237833B9044B13B10448AFF3B8
:1002A80000800123237010BDC85B002000000000FF
:1002B800E8B4000808B5034B1BB103490348AFF382
:1002C800008008BD00000000CC5B0020E8B40008F6
:1002D80003685A004CBF43F0004323F0004318441E
:1002E800704700BF61B32DE9F84F01F1FF3A90461E
:1002F8000646D146002707EB090404EBD4746410C2
:10030800E50071190846FFF7E3FFA245834605F1AA
:100318000800304409D0FFF7DBFFC34500F1FF3088
:1003280005D8404509D2671CE5E7C34505D9A7426A
:1003380002D004F1FF39DEE700210846BDE8F88F56
:1003480008467047012807D0022807D0044B002828
:100358000CBF184600207047024870470248704793
:10036800390A00083D0A0008410A000830B5254B43
:1003780083B004468D1E4BB301A92846AFF3008015
:10038800F0B101992A46FFF7ADFF0146C0B1FFF76A
:100398009FFF4B68A064012B2ED0002B01F10400B5
:1003A80026DBFFF795FF0023C4E913030368002B3E
:1003B80012DBFFF78DFF00232061184603B030BD24
:1003C800002323610923184603B030BD0E490F48A6
:1003D800091AC9100191D5E7C3F30360FFF7B2FF0B
:1003E800002814BF002309232061184603B030BD3C
:1003F8000123C4E91303D9E7002323610523184621
:1004080003B030BD00000000B0C0000818BB0008F1
:100418000368DA0710B5044606D49B0700F14800C4
:1004280009D500F05FFC2368590709D51A070ED5CE
:10043800DB0613D510BD00F04DFC23685907F5D431
:1004480004F1D00000F056FC23681A07F0D404F534
:10045800A87000F057FC2368DB06EBD404F5E870BD
:10046800BDE8104000F092BC036803B1034418468D
:10047800704700BF09207047704700BF70B5044639
:100488000D4608E02B6C63612A462369214601204A
:100498009847082808D1296C2046FFF767FF0646C9
:1004A8000028EFD00AF082FE0728FBD13046296CDD
:1004B800FFF7E2FF281D00F001FC00BF2DE9F0471F
:1004C8000C1D054617460FCCADF5727D03AE0FC661
:1004D8000FCC0FC60FCC0FC694E80F0002ACD5F8AE
:1004E8000C80D5F8189086E80F000023236021E0DF
:1004F800236C6B614FF4F07221467AA80AF0A6FECD
:100508002B697AAA294630469847889BCDE9004945
:100518008246636431462B462A460120C047074677
:10052800F8B94FF4F0727AA920460AF08FFEBAF1B2
:10053800080F1CD1216C2846FFF718FF002F08BFB1
:100548000926074618BF0A260028D1D0A36B46F013
:100558001001CDE900492A46636401202B46C047B3
:1005680000B1092738460DF5727DBDE8F087BAF16C
:10057800070FF6D13846216CFFF77EFF03A800F07D
:100588009DFB00BF406C7047F0B5CB6B0B640D1D35
:100598000F4606460FCDF9B001AC0FC40FCD0FC4FE
:1005A8000FCD0FC495E80F004FF0FF3584E80F001A
:1005B800009506E033696A4631469847082804469C
:1005C80008D110993046FFF7D1FE0028F2D0092053
:1005D80079B0F0BD6846FFF71BFF062CF7D1394606
:1005E8003046FFF74BFF00BF30B4DD6BC16082615E
:1005F80019461D64002230BC60E700BF70B5C668AC
:1006080043690B64BEB903690A4604460D460146B0
:1006180002209847072807D0082803D129462046F2
:10062800FFF72CFF0AF0C2FD3046296CFFF724FFC4
:10063800281D00F043FB0122FFF740FF0AF0B6FD3A
:10064800C2681AB1CA6B0A64002237E79CE700BF88
:10065800704700BF836813B10146012018477047EF
:10066800042907D8DFE801F00308060808000BB9D9
:100678000F2A03D9022070470120704700EB82023D
:1006880018465368009A1360704700BF10B584B0CD
:10069800002303AC0A4600941946FFF7E1FF0398CC
:1006A80004B010BD042907D8DFE801F003080608E4
:1006B80008000BB90F2A03D90220704701207047A0
:1006C80000EB8200009A126842601846704700BF2B
:1006D80010B584B004AC002344F8042D0A460094F5
:1006E8001946FFF7DFFF04B010BD00BFF0B5D36BAC
:1006F8001364151D07460E460FCDADF50F7D17ACDB
:100708000FC40FCD0FC40FCD0FC495E80F004FF0E5
:10071800FF3584E80F00169510E016A8FFF7D8FFFC
:10072800314616A8B84716AA694678B9049B082026
:100738009847052804460AD0092807D0269968460C
:10074800FFF714FE6A460C210028E6D0092416A8F3
:10075800FFF75EFE20460DF50F7DF0BD2DE9F04F49
:100768000D46C96C89B00C1D164600F0030B0A68CB
:1007780006941F46002B68D0130CD9B212048DF8CA
:100788001D30022304EB810405928DF81C302B6D7B
:10079800BBF1020F08BFAC6B13F0010346D1019304
:1007A80000F008030093D4F80090B9F1000F00F0AE
:1007B800F380022F45D0B4F80090B4F802800434D6
:1007C800AB6C28F0010A0F2130469A44FFF75EFF10
:1007D800824534D829F001035344834294BF002052
:1007E80001204FEA480808F0020809F0010948EA20
:1007F8000908B8F1010F3AD031D3B8F1020F1AD174
:10080800236823F0004ABBF1000F66D130B1009A8B
:10081800002A6CD0BAF1000F00F09080002B00DAAB
:1008280004340AF1010304EB8304BCE7304605A94C
:1008380000F046FB78B1092009B0BDE8F08F002030
:10084800CFE7D4F804800834BAE7120203230592EC
:10085800ADF81C309BE7082009B0BDE8F08FBBF16C
:10086800000F02D0002840F0B48004349BE7BBF1AD
:10087800000F18D1A8B1D4E90023991C4FEAD2720D
:10088800D9D005F158010133049100F0B580201D3D
:10089800FFF7EAFD04AB014628460AF035F90028BF
:1008A80067D108347FE70D213046D5F82080FFF75F
:1008B800EDFE8045F5D1AB6A9C42F2D12046FFF7A8
:1008C80007FD0F2102463046FFF702FF30462A4651
:1008D8000021FFF7FDFE0720AEE70D213046D5F8D1
:1008E8002080FFF7D3FE804532D0236896E7BAF11F
:1008F800000F23D005F1580304F10408CDF808B01F
:10090800DDF800900397A3461C4602E05745B94618
:1009180040D040460494FFF7A7FD04AB01460022EF
:1009280028460AF0F1F809F1010708F1040800283F
:10093800ECD0D1455C46DDE902B7D6D130460D2171
:10094800FFF7A4FE049B2862C5E90934062073E773
:10095800AB6A9C42C9D104224FF00008A318C5E92C
:100968000AA8C5E90C23236843454DDB01230193FD
:1009780057E780460D213046FFF788FEB8F1020F91
:1009880028623ED12B46049A43F82C2F6B62AC6246
:10099800062051E75C46D1E705A9304600F090FAF9
:1009A80000287FF448AF019B002B3FF454AF0F2180
:1009B8003046FFF76BFE0E2102463046FFF788FEF1
:1009C80030461A4A0F21FFF783FE072009B0BDE819
:1009D800F08F2046FFF77CFC04340746AC632846BA
:1009E8000AF0F0F800283FF426AF30463A460F21C7
:1009F800FFF76EFE07201FE730460D21FFF746FE82
:100A08002862049B6B62C2E70AF1010004EB8000D4
:100A1800FFF75EFC0F2102463046FFF759FE3046CD
:100A28002A464146FFF754FE072005E729AE00088D
:100A3800002393E6012391E602238FE62DE9F04196
:100A48000546C4B0042906D8DFE801F04D2B05039C
:100A58000900032B5FD0022044B0BDE8F081002BD1
:100A6800F9D1102AF7D82B68DC0600F1F48022AC03
:100A78002046019200F094F9A86B019A0023012600
:100A880006FA03F1114203D0016844F82310043038
:100A98000133042BF4D1A863204600F077F9002035
:100AA800DAE7012B4FEA124697B252D0052BD2D182
:100AB80006EB0708B8F1200FCDD80F2E40F2998029
:100AC800B846002F40F0DB80AA6BAA630F2E40F2D5
:100AD800BE80B8F1000F02D002A800F00BF9002088
:100AE80044B0BDE8F081002BB5D1AC6B97B2281D9E
:100AF800012606FA03F1394203F1010302D0216805
:100B080001600434102B00F10400F2D112F40050FB
:100B1800E5D1AC63A0E7160C97B2F319102B9AD85D
:100B28002B681A075DD422AC204600F00DF904EBBF
:100B3800C601AB6B3FB103EBC702186841F8040B61
:100B480004339342F9D12046AB6300F0DBF8002070
:100B580082E7F219102A3FF67EAF0F2E3FF67BAFE1
:100B68002A68D10708D5284622F0030240F8482B06
:100B7800019300F0B3F8019B019322AC204600F0EA
:100B8800ADF8A96B019B002F00F095807F0004EB66
:100B9800C6044FF00008043C01EB870251F8040B2F
:100BA80044F8040F9142F9D1B8F1000F0FD002AC0C
:100BB800102E314638BF102104EBC101843902EBF5
:100BC800C80452F8040B41F8040F9442F9D1012BE0
:100BD8007FF47BAF22AC0432AA63204600F07AF897
:100BE8007DE723F008032B6005F5A87000F0ACF84A
:100BF80099E7B8F1100F2A6843D9D007A8F110086F
:100C08000BD5284622F0010242F0020240F8482B98
:100C1800019300F06BF82A68019B510725D40F2E29
:100C280004D822A8019300F061F8019B019302AC5B
:100C3800204600F063F8C6F110010029AA6B019B59
:100C4800B6DD22AC4F0004EBC6041146A3E722A888
:100C580000F048F83DE723F010032B6005F5E87035
:100C6800019200F09DF8019A01E7284622F004025B
:100C780040F8D02B019300F041F8019BCFE72A6898
:100C8800CBE7D0070AD5284622F0010242F002023B
:100C980040F8482B019300F029F8019B019322ACFE
:100CA800204600F023F8B846A96B019B002F7FF47B
:100CB8006DAF0A4609E70A468DE700BF00F1340127
:100CC80091E838009C46A6464CF8045D90E8FF0F72
:100CD800E54600BD90EC210B704700BF80EC210B6E
:100CE800704700BF90EC200B704700BF80EC200BD2
:100CF800704700BFD0EC200B704700BFC0EC200B42
:100D0800704700BFF0EC0201F0EC0211F0EC022198
:100D1800F0EC0231F0EC0241F0EC0251F0EC02612F
:100D2800F0EC0271F0EC0281F0EC0291F0EC02A11F
:100D3800F0EC02B1F0EC02C1F0EC02D1F0EC02E10F
:100D4800F0EC02F1704700BFE0EC0201E0EC0211A8
:100D5800E0EC0221E0EC0231E0EC0241E0EC02516F
:100D6800E0EC0261E0EC0271E0EC0281E0EC02915F
:100D7800E0EC02A1E0EC02B1E0EC02C1E0EC02D14F
:100D8800E0EC02E1E0EC02F1704700BFB0FC018149
:100D9800B0FC0191B0FC01A1B0FC01B1704700BFEB
:100DA800A0FC0181A0FC0191A0FC01A1A0FC01B163
:100DB800704700BFEC4600B52DE900502DE9FF1F34
:100DC8004FF000032DE90C0001A9FFF7DDFBDDF86A
:100DD80040E012B0704700BFEC4600B52DE9005066
:100DE8002DE9FF1F4FF000032DE90C0001A9FFF7C3
:100DF80005FCDDF840E012B0704700BFEC4600B5D6
:100E08002DE900502DE9FF1F4FF000032DE90C00DC
:100E180001A9FFF715FCDDF840E012B0704700BFEC
:100E2800EC4600B52DE900502DE9FF1F4FF00003F7
:100E38002DE90C0001ABFFF7D7FBDDF840E012B05D
:100E4800704700BFEC4600B52DE900502DE9FF1FA3
:100E58004FF000032DE90C0001AAFFF747FCDDF86D
:100E680040E012B0704700BF027A82B9437AABB152
:100E78004268013B10B4437213680321141D0172C8
:100E88001A02446002605DF8044B180E704703684C
:100E9800013A02721A020260180E7047B0207047B9
:100EA80000B585B003AA0023009219460C22FFF76B
:100EB800D7FB039805B05DF804FB00BFF0E700BF5F
:100EC8002DE9F043054685B00E464FF00008304640
:100ED800FFF7CAFFB028044600F0B180070620D506
:100EE80000F0F003802B65D0902B36D0A02B78D063
:100EF800B02B47D0C02B00F08A8000F0F803D02B2D
:100F08000BD100F00702013242F40022052301212F
:100F18002846FFF793FD0028D9D0092005B0BDE881
:100F2800F0830DF10C09002319468700CDF80090D5
:100F38000D222846FFF794FBFFB2039BCDF80090E3
:100F4800043760064CBFDF1BFF18002319460D222B
:100F580028460397FFF7A6FBB9E700F00D030D2B12
:100F6800DBD003AF002300F00F0219460097284694
:100F7800FFF776FB0023009719460D222846FFF756
:100F880091FBA4E7B1285FD0B22800F0CC80B32849
:100F98007ED000F0FC03B42BBFD000F00702013272
:100FA800012342F4002219462846FFF747FD00288E
:100FB8008DD0B2E73046FFF757FF24020443B4F55B
:100FC800004FAAD024010023A2B219462846FFF7F1
:100FD80035FD0028A1D114F4004F18BF4FF00108C7
:100FE80075E7C24302F007034FF47F621A41010715
:100FF80002F47F624FF0000348BF42F48042194672
:101008002846FFF71BFD00283FF461AF85E7C62897
:1010180051D0C7285AD000F0F803C02B69D0C8288F
:1010280075D0C9287FF479AF3046FFF71DFF02035A
:1010380000F00F0002F470220130024366E7B8F1B5
:10104800000F14D0002069E73046FFF70DFF002895
:101058003FF463AF10F0F0037FF45FAF0246194628
:101068002846FFF7EBFC00283FF431AF55E703AC07
:1010780043460E22414600942846FFF7F1FA0094B1
:10108800284643460F224146FFF70CFB404645E7FA
:101098003046FFF7E9FE010300F00F0001F470216C
:1010A800421C01230A4328461946FFF7C7FC0028BB
:1010B8003FF40DAF31E73046FFF7D6FE010300F0ED
:1010C8000F0001F47021421C0323EBE73046FFF7C1
:1010D800CBFE024600283FF420AF10F0F0037FF467
:1010E8001CAF04212846FFF7A9FC00283FF4EFAE07
:1010F80013E700F00F020132032342F420221946BD
:101108002846FFF79BFC00283FF4E1AE05E7304690
:10111800FFF7AAFE00F0F00200F00F0310320133CF
:1011280043EA0232F2E600230DF10C090D221946BA
:10113800CDF800902846FFF793FA3046FFF794FE63
:1011480002064FF002070CD5039B00F07F00B84061
:10115800034430460393FFF787FE030607F10707AA
:10116800F2D4039BCDF8009000F07F0403F50172E0
:10117800BC400023144419460D2228460394FFF767
:1011880091FAA4E610B5C36C84B05A6803208DF8B0
:101198000C00DC798DF80D4012020833084601A9CD
:1011A80001920293FFF78CFE04B010BD08B5FFF75B
:1011B80085FE806C08BD00BF08B5FFF77FFEC06CD8
:1011C800C37900EB8300083008BD00BF08B509F0FB
:1011D800EDFF00BF08B5FFF7F9FF00BF10F8012BBE
:1011E80011F8013B012A28BF9A42F7D0D01A70475C
:1011F800034613F8012B002AFBD1181A013870474F
:1012080070470000074B13B51C68FF21204608F003
:10121800E9FC204608F073FC204602B0BDE8104007
:1012280008F078BD90B5000838B5174C2378BFF39F
:101238005B8FDB0706D4204609F0FAFC10B1204684
:1012480009F002FD114A4FF4617111481388013306
:101258009BB213805B1093FBF1F201FB123219234E
:1012680053430C4AD15C4A780B788C7903EB022300
:101278000D7904F0F0049AB2074B05705343C4711A
:101288001B16438138BD00BFE45B0020E85B0020EB
:10129800105A002004000020A2080F002DE9F04F8A
:1012A800D3B04C22002110A809F0F4FF202200211D
:1012B8000DEB020009F0EEFFBC22002123A809F083
:1012C800E9FF1822002102A809F0E4FF022004F037
:1012D800D5FB00230093484B9A6942F440429A6137
:1012E8009A6902F440420092444AD16A41F00101ED
:1012F800D162D26A02F001020092009A9A699004BF
:10130800FCD53F4E4FF0040A00240225B36A20277B
:101318004FF001084FF0220923F0030310A84FF4FF
:10132800806BB3623C23CDF84090CDF858801F9570
:101338002294CDE91BA30C23CDE91387CDE92034F2
:10134800CDE91954CDE91D5502F044FC3F22032391
:1013580008210DEB07000A94CDE908234023CDE9C5
:101368000B1351460D93CDE90EB302F009FF254B3F
:1013780023A82F9535943A9448944B94CDE9233A71
:101388000923CDE92538C023CDE929374FF4805307
:10139800CDE92B378123CDE92D351C23CDE9303B11
:1013A8004FF440333B934FF4401344934FF480433E
:1013B800CDE927555093CDE9324403F0F7F8D6F834
:1013C800EC3002A82B43C6F8EC30D6F8EC30029487
:1013D8002B4007970193019B4FF00053CDE903344D
:1013E8004BF67F33CDE9053904F000F804F06CFBC7
:1013F80053B0BDE8F08F00BF004802580004005801
:101408000044025810300C32F0B587B0BFF34F8F4C
:10141800BFF36F8F394B0021C3F85012BFF34F8FC2
:10142800BFF36F8F5A6942F400325A61BFF34F8F8E
:10143800BFF36F8FC3F88410BFF34F8FD3F88020AA
:1014480043F6E076C2F3C904C2F34E32A50752014F
:1014580002EA060C284621464CEA0007013900F149
:101468004040C3F860724F1CF6D1203A12F1200FA9
:10147800EED1BFF34F8F5A6942F480325A61BFF3FD
:101488004F8FBFF36F8F04F04DFB1D4CFFF706FF26
:1014980005F08AFF06F01EFA06F0C8FF06F064FFA2
:1014A80006F096F906F028FA06F082FA06F090FBA4
:1014B80006F09AFC06F066F806F0C4F806F024FD7B
:1014C80006F050FD06F01AFE07F002F804F0F8FEE8
:1014D80007F05CF807F084FD08F0B0F8002306AACE
:1014E80001A903A8019342F8103D07F085FC236881
:1014F800984707F089FF23689847F8E700ED00E070
:10150800A865002070477047FEE7FEE7FEE7FEE7A4
:1015180070477047704704F033BB0000014801F082
:10152800D9BF00BF706100201E4B07B5D3F8F42067
:10153800032042F00202C3F8F420D3F8F43003F099
:1015480002030193019B00F099FE00226FF00B004B
:10155800114600F0A5FE00226FF00A00114600F0C7
:101568009FFE00226FF00900114600F099FE00224C
:101578006FF00400114600F093FE00226FF00300A4
:10158800114600F08DFE00226FF00100114600F0B8
:1015980087FE00224FF0FF30114603B05DF804EBE0
:1015A80000F07EBE0044025830B5CC0D1430C1F3B3
:1015B8000451072504F004048D4002FA01F1235870
:1015C80023EA05031943215030BD806800F001006B
:1015D80070478068C0F38000704700000368444A81
:1015E80093422DE9F04104460F4620D002F1C05243
:1015F8004048414902F58642834208BF0A462569A8
:101608009668082D06F01F0625D0092E11D840F23D
:101618002122F240D1070CD5DB6813F0010F19D055
:10162800636D012043F020036365BDE8F081324A11
:10163800E5E72F4A93420BD02E4802F540722F4916
:1016480083420CBF13460B469B6813F4404FE6E7F2
:10165800294BF9E7042504F09FFA804623681A68A5
:101668002A4212D17A1CFAD004F096FAA0EB0800AC
:10167800B84201D8002FF1D1636D032043F0040371
:101688006365002384F85030CFE7626D42F400723E
:101698006265DA6812F4406F0FD1627D6AB91A6820
:1016A80010070AD5626D22F480726265626DD104FA
:1016B80003D4626D42F0010262650E4A93420BD078
:1016C800D868082D02D11D600020AEE710F48040D4
:1016D800FAD10C221A60A8E7092E05D840F2212277
:1016E80022FA06F6F207EBD4014AD068E9E700BF10
:1016F80000200240002102400023024000630258FB
:101708000368186C704700000023F7B5019304467E
:1017180090F850300D46012B00F07281012380F8BB
:1017280050300068FFF755FF002840F063810A68D1
:10173800C2F31300C2F3846150BB8B4020681F279B
:10174800C26900F1300C13436A68960902F01F025F
:10175800C36106F00C06974001FA02F256F80C3005
:1017680023EA0703134346F80C30FFF732FF064617
:10177800206883681F0740F145812068FFF725FF2F
:1017880000283CD00020002384F8503003B0F0BD7E
:1017980092FAA2F0B0FA80F000F01F008340CDE783
:1017A800D968D868C90640F13F81400800F00800B0
:1017B8003DE1196E920601F0F841914203D1196E8C
:1017C80021F000411966596E01F0F8418A4203D1AF
:1017D800596E21F000415966996E01F0F8418A422C
:1017E80003D1996E21F000419966D96E01F0F84154
:1017F8008A42C2D1DA6E22F00042DA66BDE7EE68AC
:101808002B68206806F0180CA24AC3F31307D0F817
:10181800C01022FA0CF221EA07011A400A43C0F864
:10182800C0209D4A96421CD1002F5BD19A0E0132EE
:1018380002F01F069206092E02F0F8414FF001024D
:1018480002FA06F27FD81143002F66D19B0E0133AE
:1018580003F01F0303EB43031B051943AA68FFF7B3
:10186800A3FE2B68002B8DDA22688C498A4200F08F
:1018780084808B4E8B4B8C48B24208BF03468A4209
:101888009B687CD086498A4279D08848FFF79DFEBC
:10189800B0FA80F04009002800F0A680296803F01B
:1018A800E0728348814276D11B023FF56BAF216815
:1018B8007E4B99427FF466AF7A498B6823F0E073D8
:1018C80043F4000313437B4A8B607B4B1B68B3FBD9
:1018D800F2F35B000193019B002B3FF453AF019B94
:1018E800013BF7E793FAA3F2B2FA82F2013202F06F
:1018F8001F02092A16D893FAA3F1B1FA81F101312E
:10190800890601F0F84193FAA3F2B2FA82F20132A1
:1019180002F01F060122B24095E793FAA3F3B3FA47
:1019280083F394E793FAA3F1B1FA81F101318906BF
:1019380001F0F84193FAA3F2B2FA82F2013202F00E
:101948001F060122B2400A435FB99B0E013303F020
:101958001F0303EB43011E39090541F000711143D0
:101968007CE793FAA3F3B3FA83F3013303F01F037D
:1019780003EB4303A3F11E01EEE74B4B7FE7474818
:10198800FFF723FE02464648FFF71FFE02430CBF3F
:10199800012000207FE74948814211D113F080706F
:1019A8007FF4F0AE2168414B99427FF4EBAE3D499C
:1019B8008B6823F0E07343F0807313438B60E2E697
:1019C8003F4881427FF4DEAE13F480007FF4DAAE44
:1019D8002168364B99427FF4D5AE32498B6823F0A3
:1019E800E07343F48003E8E7636D012043F02003CC
:1019F8006365C8E6626D184642F020026265C2E679
:101A08000220C3E6002E7FF4B8AEAA682968FFF763
:101A1800CBFD2C4B6A691B6803F07043B3F1805F00
:101A280023687FF4BDAED868C0F382004000D5F8C3
:101A380010C002FA00F02A68BCF1040F3FF4B9AEF6
:101A480003F1600702F0F84257F82C1001F000414A
:101A58000A43024347F82C206A7E2969012A57F86D
:101A6800212014BF00204FF0004022F00042024322
:101A780047F821202A7E2869012A1A6900F01F00E8
:101A880008BF4FF4006622F4F04206FA00F0104353
:101A9800186172E6FFFF0F000000FF4700200240B8
:101AA80000210240006302580023024000600258EF
:101AB800000084CB400D0300F0570020000052C7FF
:101AC8000000B8CF0010005C70B504460068FFF74E
:101AD80080FD23689A68160756D5DA6890012BD5D9
:101AE800A08A40F20112904226D1294A1968490673
:101AF8000BD4013AFAD1636D012043F010036365FA
:101B0800A36D43F00103A36535E0402201211A606B
:101B18001846FFF75EFD58B1226893689E0707D400
:101B2800936823F0004323F03F0343F010039360CE
:101B3800012903D1042516E00229E9D12268936816
:101B480018070AD593689B0707D4936823F00043C6
:101B580023F03F0343F02003936002290CD00329AC
:101B68000CBF0C25042504F017F8064623689B686B
:101B78002B4203D1002070BD0825F4E704F00CF8CF
:101B8800801B0528F2D9B6E70028A6D1F2E700BFE6
:101B980001DC0C0070B504460068FFF716FD08B1BB
:101BA800002070BD2268214B9168194209D0636DED
:101BB800012043F010036365A36D43F00103A3659F
:101BC800EFE7936823F0004323F03F0343F001035A
:101BD800936003F0E1FF2268154B054615499A42C8
:101BE8001ED003F1C053144803F586438A4208BF48
:101BF80003468A429B6815D0104E20680368DA07AE
:101C0800CED4FFF7E2FC28B922689368334043F04A
:101C18000103936003F0C0FF401B0228EDD9C6E71B
:101C2800054BE6E7DB06E7D0BAE700BF3F000080D8
:101C3800002002400021024000230240C0FFFF7F35
:101C480070B53B4B04460068984257D003F1C05327
:101C58003849394A03F58643884208BF13469E68C7
:101C6800FFF7B7FC054600285BD194F85030012BEC
:101C780057D00123204684F85030FFF78BFF002807
:101C88004CD1636D06F01F022A4923F4706323F0D8
:101C9800010343F48073636523688B4243D019467C
:101CA800656D25F480156565656D15F4805502D060
:101CB800A56D25F00605A5651C258B421D604FF016
:101CC800000584F8505007D0092A19D840F2212578
:101CD80025FA02F2D50713D5DA68920105D5626DA7
:101CE80022F4405242F4805262659A6822F000421F
:101CF80022F03F0242F004029A6070BD0E4BAEE73C
:101D0800636D43F480136365CB689B01F5D5636D00
:101D180023F4405343F480536365EEE784F850504E
:101D2800EBE70220E9E70249002AB9D0BCE700BF87
:101D380000200240002102400023024038B504463A
:101D48000068836803F00203FFF73FFC08B900202E
:101D580038BD002BFBD12268936803F00D03012BDB
:101D680015D1936823F0004323F03F0343F00203A7
:101D780093600323136003F00FFF054623689B68F5
:101D8800DB07E4D503F008FF401B0228F6D9636D92
:101D9800012043F010036365A36D43F00103A365BD
:101DA800D6E790F85030012B10B5044616D0012321
:101DB800032180F85030FFF787FE58B92046FFF717
:101DC800BDFF38B9636D23F4885323F0010343F052
:101DD80001036365002384F8503010BD0220FCE73E
:101DE80038B5464A05460368934203D002F5807227
:101DF800934218D1424B9B6813F4403F14BF012310
:101E080000230BB302F0CCFA6B680446B3F5003F2D
:101E180005D0B3F5403F08D0B3F5803F06D11B0C81
:101E2800B4FBF3F402E0374BE5E7840803F0CCFE9B
:101E380041F2030398422B6841D8334A94429A6886
:101E480039D942F4807238E04FF4002003F0FEF9EB
:101E58006B680446B3F5C01F0AD012D8B3F5402FFB
:101E680006D008D8B3F5802F02D0B3F5002FDDD106
:101E78009B0C5B00D4E7B3F5801FF9D0B3F5A01F26
:101E8800F5E7B3F5101F12D007D8B3F5E01F0CD053
:101E9800B3F5001FCAD14409C8E7B3F5201F08D01D
:101EA800B3F5301FC2D1040AC0E70409BEE78409AC
:101EB800BCE7C409BAE722F480729A6038BD6408A6
:101EC800124A944203D89A6822F44072F5E7104AFD
:101ED800104922448A4203D89A6822F44072B0E733
:101EE8000D4A0E4922448A429A6896BF22F44072EB
:101EF80042F4407242F40072DFE700BF0020024063
:101F08000023024000630258002D3101105E5F007B
:101F1800EFA1A0FF0F5E5F00DF4341FF1FBCBE00C3
:101F2800002337B504460193002800F08B80456DE7
:101F380025B905F0E5FBA56584F85050206883684D
:101F48009D0005D5836823F0204323F03F03836079
:101F58008368D90012D483686F4A23F0104323F0B2
:101F68003F0343F0805383606C4B1B68B3FBF2F371
:101F78000193019B13B1019B013BF9E78368DA00E8
:101F88005BD4636D012543F010036365A36D43F0D3
:101F98000103A365FFF71DFB636D13F0100F636D5D
:101FA8004DD100284BD123F48173206843F00203FC
:101FB8006365FFF70AFB002846D003F005FE41F2EF
:101FC8000303226B9842217F607DA36801D9102BFF
:101FD8006CD01343012943EA403308BF226A43EA1D
:101FE800014304BF02F1FF3243EA4243626A22B16D
:101FF80002F47872A16A0A4313432068484AC16808
:102008000A401343C360FFF7E4FA226893681B078A
:1020180057D5E3682268012B4FD1116BA36921F0D2
:102028000F01013B0B431363636D23F0030343F07C
:1020380001036365284603B030BD0025AAE743F0D5
:10204800100363650125F5E72368364A93421FD0DC
:1020580002F5807293421BD03348FFF7B6FAB0FA04
:1020680080F040090028A8D022682E4B9A421BD045
:1020780003F1C0532D482E4903F58643824208BF19
:102088000B469A68616822F47C120A439A6094E7C6
:102098002448FFF79AFA03462448FFF796FA0343C1
:1020A8000CBF01200020DDE7214BEAE742F01C03CA
:1020B80090E7136923F0010323E0136B23F00F0368
:1020C800B1E70028A5D1D368217D23F4804323F00C
:1020D800030343EA8133E16A0B43D36094F8383051
:1020E800012BE6D11069D4E910310B43A16C43F000
:1020F80001030B430F4901400B43E16B013943EAEC
:102108000143136120461369616B23F070430B434D
:102118001361FFF765FE7CE7400D0300F0570020D0
:1021280003C0F0FF00200240006002580021024076
:10213800002302401EF800FC806800F00100704790
:102148008068C0F38000704790F850200346012A49
:1021580070B59AB000F08580012280F85020424A7C
:10216800006890420CBF02F580720022019201982B
:1021780040B95A6D83F85000012042F020025A6598
:102188001AB070BDFFF7DCFF02461868FFF7D8FFEA
:1021980030B92AB91868344A90420AD1334A0EE055
:1021A8005A6D012042F020025A65002283F850201F
:1021B800E6E72F4D2F4A2D4CA84208BF22460C684F
:1021C800294D5CB39468A8424E6824F4404444EA1C
:1021D800060494600BD0264CA04208D02648FFF78E
:1021E800ABFFB0FA80F0400968B90020DDE71E486F
:1021F800FFF7A2FF04461E48FFF79EFF20430CBFCF
:1022080001200020F0E7086894688968014324F4F5
:10221800716020F00F0001439160E6E79168A842E1
:1022280021F44041916010D0114988420DD01248E4
:10223800FFF782FFB0FA80F040090028D5D09168F6
:1022480021F4716121F00F01E6E70748FFF774FFF9
:1022580001460748FFF770FF01430CBF012000202B
:10226800EBE702208CE700BF002002400023024079
:10227800002102400063025800600258074A000229
:10228800D36800F4E06023F4E0631B041B0C43F004
:10229800BF6343F400330343D360704700ED00E0AD
:1022A800164B70B5DC684FF0FF36C4F30224C4F156
:1022B8000705231D042D28BF0425062B06FA05F360
:1022C8008CBF033C0024002821EA030303FA04F32B
:1022D80006FA04F422EA040443EA04034FEA031367
:1022E800DBB206DB00F1604000F5614080F80033A6
:1022F80070BD00F00F00024A1354F9E700ED00E04A
:1023080014ED00E0002808DB4209012300F01F005B
:1023180003FA00F0014B43F82200704700E100E0A7
:102328000138B0F1807F0AD2064BF021064A586086
:10233800002082F82310072298601A607047012055
:10234800704700BF10E000E000ED00E010B5044663
:1023580068B1037903F0FF0213B9427105F05CFA22
:1023680002230020237101232061237110BD012065
:10237800FCE74379012B4FF0020330B517D0037106
:102388000122036801F0100542711C68AA4022432B
:102398001A601A6869B902F03E02022A03D15A6823
:1023A80042F001025A600123037100234371184669
:1023B80030BD02F47812B2F5003FF4D15A6842F009
:1023C8000202EFE74379012B2DE9F04104460D465F
:1023D80016464FF002001CD00B6801222071042B16
:1023E800627135D1002E6CD103F0D6FBDFF8F48092
:1023F800074623685B6B13EA080F0CD003F0CCFB8D
:10240800C01B0128F5D92369032043F00803236181
:102418002071BDE8F081012003F0C4FB2368AA699C
:102428001A64216806F0100040F2FF338A6C83407A
:1024380022EA0302EB6983401A438A64FF22CB6CC9
:10244800824023EA02032A6A02FA00F00343CB64BB
:10245800296906F010022368012908D11F20996B09
:10246800904021EA0000696991400143996307207F
:10247800D96BAE68904021EA000029683143EE68C4
:102488003143914001434FF48040D963904019682B
:1024980021EA000140F6FE7019609040196821EAAF
:1024A8000000696891400143C020196000FA02F2F7
:1024B8001968002021EA02021A6001236071237161
:1024C800A7E723685B6B002B04DA03F065FB0128A0
:1024D800F7D998E7012003F065FB2368AA695A64D5
:1024E8009FE700BF0080002013B5044600284CD0A9
:1024F800022380F8C1300023C0E93133C0E9333307
:10250800C0E935338368DA071CD50168204B994246
:102518000CD1204BD3F8F02042F00052C3F8F02041
:10252800D3F8F03003F000530193019B0B68226944
:1025380023F4704302F440421A43636903F440539E
:1025480013430B60204605F01BFAA3689B0708D5C8
:102558002168E3680A6803F4407322F44072134365
:102568000B60012304F1A80284F8C130002384F829
:10257800C030A3622363C4E90633C4E908331C34BA
:102588009442F6D1002002B010BD0120FBE700BF45
:102598000074014000440258F0B590F8C140E4B21C
:1025A800022C29D00223052980F8C1300368D2E91A
:1025B8000276D2E900540ED11A6822F007023A4393
:1025C80022F0180232431A605D619C61012380F891
:1025D800C1300020F0BD03EBC113D3F8801021F007
:1025E8000701394321F018013143C3F88010C3F8BB
:1025F8009450C3F89840E9E72046EBE790F8C130DB
:10260800DBB2022B2DE9F04F8E4685B000F0F88042
:1026180090F8C030012B00F01581012305290668C8
:1026280080F8C0304FF0020380F8C130D2E905B31A
:10263800D2E907981F46136BD2E909C502933BD12B
:102648003368D6F8A01323F0200321F4803143EA3D
:102658000B0B029B2BF4006B4BEA070A2AF4806AE7
:102668004AEA090929F0C06949EA080828F0006817
:1026780048EA0C0C2CF0404C4CEA850525F0005536
:102688001D43D36A194335601C23C6F8A01311688B
:1026980003FB0E0319625168596291689962D16807
:1026A8001269D9621A63BEF1050F00F2A380DFE850
:1026B8000EF0ABB1B7BDC39A4FEAC11A06EB0A03D5
:1026C8000193D3F88030019923F07043C1F880302A
:1026D800D1F88030D1F8E81023F02003039143EAC1
:1026E8000B03019923F40063D1F8E440D6F8A01352
:1026F8003B43039F23F4806343EA090323F0C06349
:1027080043EA0808029B28F00068B3F1005F136DE4
:1027180048EA0C0C27F00048D76B2CF0704C28F0D6
:102728001F084CEA0505D2F834C025F4003508BF67
:1027380045F4003525F0400545EA0C0525F48025CB
:102748002B4323F0FC75936C2B43956B05F01F0509
:1027580048EA05053D43BCF1000F03D124F4807419
:10276800176C3C43D2F8448028F48059B9F5606F5F
:1027780002D1BCF1400F03D124F4F05448EA040418
:10278800D2F84CC0BEF1040F09D8DFE80EF00314EC
:102798001A20260021F40031D76A41EA4701019F37
:1027A800C7F8803006EB0A03C3F8E850C3F8E440E2
:1027B800C3F8D4C068E721F48021D76A41EA8701C9
:1027C800EDE721F40021D76A41EAC701E7E721F4E0
:1027D8008011D76A41EA0711E1E721F40011D76AAD
:1027E80041EA4711DBE70268D2F8843343F001037A
:1027F800C2F88433012380F8C130002380F8C03048
:10280800184605B0BDE8F08F0268D2F8843343F06B
:102818000203EDE70268D2F8843343F00403E7E7E4
:102828000268D2F8843343F00803E1E70268D2F87B
:10283800843343F01003DBE70268D2F8843343F0B3
:102848002003D5E70220DCE7D201D1F800C02DE94A
:10285800F043843204684F680CF10106A318E56858
:102868004FF0000ED1F818905868C5F30B4500F4E6
:1028780070403D445860E068C0F30B40304440EA83
:102888000540CD685860E068C0F30A0005449868C0
:1028980000F4704098608868E6680130C6F30A065C
:1028A80030440E6940EA05409860186920F0070036
:1028B80018611E619D6991F8320091F83180C3F862
:1028C80018E091F8305045EA096545EA082545EAD7
:1028D80000459D61586920F0FF00586148695861BA
:1028E800D86920F4E06020F00700D861D1E90750EA
:1028F8000543DD61986A486AC3F828E098621EB308
:10290800012E23D0B01E022822D9072E0CBF022088
:102918000120DD6AA7EB0C0705F0E025DD628D6A72
:10292800C96A45437843073040EA0540D862186BC6
:1029380020F4FF6020F0070018631963A35843F0E0
:102948000103A350BDE8F0830420E2E70320E0E799
:102958000220DEE738B50446002863D090F8A1309D
:1029680003F0FF021BB980F8A02005F089F90223C3
:1029780084F8A13023689A6922F070429A619969B3
:10298800D4E901200243E0680243206902436069F8
:102998000A4325499A619A680A409A609A6842EA05
:1029A8000042A0690243E0699A60DA680A40DA6086
:1029B800DA6842EA0042206A0243606ADA601A6909
:1029C8000A401A611A6942EA0042A06A02431A617F
:1029D8005A6911405961E16A5A6942EA0142216B18
:1029E8000A435A61D96A94F8360001F07F4194F895
:1029F8003550D962D96A94F834200A4342EA05224C
:102A080042EA00420020DA625A6B42F006025A6338
:102A18009A6942F001029A610123C4F8A40084F87B
:102A2800A13038BD0120FCE700F800F0F8B590F8B7
:102A3800A03006468C469646012B4FF002001DD06A
:102A480034240D4686F8A100012704FB026486F8A9
:102A5800A07038340FCD0FC40FCD0FC40FCD0FC4E5
:102A68002B683046724661462360FFF7EDFE3368F7
:102A780000205F6286F8A17086F8A000F8BD2DE9F5
:102A8800F041069D04460E461746984623689A6804
:102A9800324214BF01220022BA4213D06A1CF6D077
:102AA80003F07AF8A0EB0800A84201D8002DEDD178
:102AB8000423012084F84130636C43F0010363640C
:102AC800BDE8F0810020FBE737B5044603F064F861
:102AD8000546002C4DD094F84030012B4BD00123F3
:102AE80084F8403094F8412002F0FF033AB984F8A2
:102AF8004030204605F094F941F28833A3642068F9
:102B0800A16802680139A36C22F4706242EA0122CA
:102B1800202102600022009320462B46FFF7AFFFDA
:102B280010BB2268E569E36811682B43256A21F028
:102B38007F412B43656821F0D00143EA05630B43CD
:102B480013605568D4E905310B43216943EA014311
:102B58000A4929400B435360136843F0010313608B
:102B68000123606484F84130002384F8403003B0C6
:102B780030BD0120FBE70220F9E700BFFEF8E0FFC7
:102B8800036859699A6942F008029A619A6942F0A1
:102B980010029A611A6822F001021A601A6922F476
:102BA8005B7222F003021A619A6822F440429A602A
:102BB80090F88120042A0BD08A0609D5D0F8842001
:102BC80042F08002C0F884209A6942F020029A619B
:102BD80090F88120032A0BD04A0609D5D0F8842022
:102BE80042F00402C0F884209A6942F040029A61D7
:102BF8008A0509D5D0F8842042F00102C0F8842063
:102C08009A6942F400729A61CA0509D5D0F88420FD
:102C180042F00802C0F884209A6942F480729A61EE
:102C28000023A0F86230A0F86A30704770B50446F7
:102C380008B9012070BD02680023404983628A42B6
:102C4800C36809D0A1F578418A4205D001F58061B1
:102C58008A4201D00F2BECD8E16B08334909DB0815
:102C680001FB033335498A4266D0A1F578418A428F
:102C780062D001F580618A425ED0082BD9D894F8D9
:102C8800813003F0FF0223B984F88020204605F044
:102C980099F902232268616884F881301368A56B6A
:102CA80023F001031360A369B3F1806F07D1B1F575
:102CB800800F04D11DB9106840F480501060A66AD6
:102CC8000B43E0692B433043E66B3043E6683043FF
:102CD8009060606B0343606A034320690343606943
:102CE8000343206A0343E06C0343A0680343A06CDA
:102CF8000343A06D0343D36059B9936823F4C053C9
:102D080043F400639360936823F4C06343F48063DF
:102D18009360136D23F0010313654B0205D5D36847
:102D2800616D23F000430B43D36000200123C4F8F6
:102D3800840084F881307DE7102B9FE70030014044
:102D48002DE9F0411D4690F8803004468846012B55
:102D580017460CD0012380F8803002F01DFF94F84C
:102D680081300646012B04D0002384F880300220ED
:102D780007E0B8F1000F00D02FB90023012084F834
:102D88008030BDE8F0810323A268C4F85C8084F831
:102D98008130B2F5C02F4FF00003A4F86070C4F87A
:102DA80084306366A4F86270A4F86830A4F86A30C6
:102DB800C4E91C33236803D11A6842F400621A601C
:102DC8005968090C0904394359601A6842F001022C
:102DD8001A606268B2F5800F03D11A6842F4007273
:102DE8001A60E3680F2B2CD9B4F8623022689BB2C2
:102DF800002B00F09080576917F002070BD0E36DA5
:102E080053F8041B1162E365B4F86230013B9BB2CE
:102E1800A4F86230E8E702F0BFFE801BA842E3D3C3
:102E28006B1CE1D02046FFF7ABFED4F884300120BC
:102E380084F8807043F48073C4F8843084F8810087
:102E48009FE7072B35D9B4F8623022689BB2002B74
:102E580061D0576917F0020719D0B4F86210E36D12
:102E6800012901D9E16B51B933F8021B1184E365DB
:102E7800B4F86230013B9BB2A4F86230E3E753F840
:102E8800041B1162E365B4F86230023BF3E702F019
:102E980083FE801BA842D6D3681CD4D0C2E753F85F
:102EA800041B1162E365B4F86230043B9BB2A4F8DA
:102EB8006230B4F8623022689BB263B3576917F086
:102EC800020720D0B4F86210E36D032902D9E16B40
:102ED8004029E4D8B4F86210012909D81B7882F88F
:102EE8002030E36D0133E365B4F86230013BDDE780
:102EF800E16B0029F2D033F8021B1184E365B4F8C2
:102F08006230023BD2E702F047FE801BA842D0D3D2
:102F1800691CCED086E723685B691A070CD402F0D7
:102F28003BFE801B8542F6D86B1CF4D0D4F8843065
:102F380043F02003C4F884302046FFF721FE002325
:102F480084F88030012384F88130D4F8840000307C
:102F580018BF012015E72DE9F8431D4690F8803089
:102F680004460E46012B9146089F15D0012380F890
:102F7800803002F011FE94F8813080466068DBB240
:102F8800012B0BD0B0F5800F03D1A16809B9042B30
:102F980004D0002384F88030022008E01EB1B9F183
:102FA800000F00D02DB90023012084F88030BDE83F
:102FB800F88394F88130042B02D0052384F88130FB
:102FC80022680023C4F86490B0F5800FC4F88430F8
:102FD800A4F86A50A4F86250A4F86850E665A4F80A
:102FE8006050C4E91C3353684FEA13434FEA034364
:102FF80043EA05035360136843F00103136003D1E8
:10300800136843F400731360E3680F2B42D8072B4F
:103018002E4600F28480226853699B0715D5A5B116
:10302800032DE36D40F2E680E16B402940F2E48035
:1030380053F8041B1162E365B4F86230043B9BB299
:10304800A4F86230B4F86250ADB22268536913F440
:10305800604F12D08EB15169636E080440F1E08070
:10306800126B43F8042B6366B4F86A30043B9BB2D6
:10307800A4F86A30B4F86A60B6B202F08DFDA0EB2D
:103088000800874201D8791C39D1002DC3D1002E00
:10309800C1D17EE0294648F2080053699E070ED543
:1030A8006DB1E36D53F8045B1562E365B4F8623003
:1030B800013B9BB2A4F86230B4F86250ADB25369D8
:1030C800034210D0002900F0C380116B636E43F8EF
:1030D800041B6366B4F86A30013B9BB2A4F86A30FB
:1030E800B4F86A1089B2002DD7D10029D5D102F0E1
:1030F80053FDA0EB080087424BD87D1C49D02046E1
:10310800FFF73EFD0023012084F88030D4F8843096
:1031180043F48073C4F8843084F8810047E7226858
:103128005369980713D595B1012DE36D52D9E16B19
:1031380000294FD053F8041B1162E365B4F86230DC
:10314800023B9BB2A4F86230B4F86250ADB2536946
:1031580013F4604F11D086B15169636E090441D5EB
:10316800126B43F8042B6366B4F86A30023B9BB2D7
:10317800A4F86A30B4F86A60B6B202F00DFDA0EBAC
:103188000800874201D87A1CB9D1002DC7D1002E7A
:10319800C5D123685B691A070DD402F0FDFCA0EBCA
:1031A80008008742F5D87B1CF3D0D4F8843043F06C
:1031B8002003C4F884302046FFF7E2FC002384F89B
:1031C8008030012384F88130D4F88400003018BF9F
:1031D8000120ECE633F8021B1184E365B4F8623091
:1031E800013BAEE7128E23F8022B6366B4F86A300F
:1031F800013BBCE7012D09D0E16B39B133F8021B63
:103208001184E365B4F86230023B18E71B7882F852
:103218002030E36D0133E365B4F86230013B0EE71B
:10322800516901F4C041B1F5005F07D9128E23F846
:10323800022B6366B4F86A30023B18E792F8302034
:103248001A70636E01336366B4F86A30013B0EE7A7
:10325800002D7FF422AF4AE7036A23F0010330B55B
:103268000362036A4468826923F002030D6822F44A
:10327800803222F073022A438D682B431B4DA842EB
:103288000FD005F58065A8420BD005F57055A8420A
:1032980007D005F58065A84203D005F58065A842EA
:1032A8001ED1CD6823F008032B43104DA84223F00C
:1032B80004030FD005F58065A8420BD005F57055BD
:1032C800A84207D005F58065A84203D005F58065BA
:1032D800A84205D14D6924F440742C438D692C43D0
:1032E800446082614A684263036230BD0000014065
:1032F800036A23F4807370B50362036A4268C46981
:1033080023F400730D6824F073042C438D6843EA9A
:103318000523164DA84203D005F58065A8420DD1B6
:10332800CD6823F4006343EA0523104DA84223F433
:1033380080630ED005F58065A8420AD00C4DA842DE
:1033480007D005F58065A84203D005F58065A84239
:1033580006D122F44055D1E90526324345EA021246
:1033680042604A68C461C263036270BD00000140E4
:1033780000400140036A23F4805330B50362036AB6
:103388004468C26923F400530D6822F4E64242EA15
:1033980005228D6843EA05330E4DA8420FD005F586
:1033A8008065A8420BD005F57055A84207D005F5F1
:1033B8008065A84203D005F58065A84204D124F4AD
:1033C80080444D6944EA85144460C2614A680264D5
:1033D800036230BD00000140036A23F4803330B536
:1033E8000362036A4468426D23F400330D6822F0D7
:1033F80070022A438D6843EA05430F4DA8420FD057
:1034080005F58065A8420BD005F57055A84207D090
:1034180005F58065A84203D005F58065A84204D16A
:1034280024F480344D6944EA0524446042654A68BE
:103438008265036230BD00BF00000140036A23F4C7
:10344800801330B50362036A4468426D23F40013A5
:103458000D6822F4E04242EA05228D6843EA0553EA
:103468000E4DA8420FD005F58065A8420BD005F592
:103478007055A84207D005F58065A84203D005F528
:103488008065A84204D124F400344D6944EA8524B7
:10349800446042654A68C265036230BD000001406D
:1034A8000368DA6842F00102DA60074A99680A405C
:1034B800062A06D0B2F5803F03D01A6842F001020E
:1034C8001A600020704700BF07000100704770476E
:1034D8007047704703681A69910710B504460FD5FD
:1034E800DA6892070CD56FF002021A6101229B6913
:1034F8000277990700F08580FFF7E9FF002323771B
:1035080023681A69520710D5DA6850070DD56FF08D
:10351800040220461A6102229B69227713F4407F35
:1035280075D0FFF7D4FF0023237723681A691107A2
:103538000FD5DA6812070CD56FF0080220461A6119
:103548000422DB6922779B0767D0FFF7C0FF0023BF
:10355800237723681A69D00610D5DA68D1060DD505
:103568006FF0100220461A610822DB69227713F4F3
:10357800407F58D0FFF7ABFF0023237723681A69F1
:10358800D20708D5DA68D00705D56FF001022046C2
:103598001A6105F0C9FB23681A69110608D5DA68AB
:1035A800120605D56FF0800220461A6100F00FFB65
:1035B80023681A69D00508D5DA68110605D56FF4AD
:1035C800807220461A6100F003FB23681A695206CC
:1035D80008D5DA68500605D56FF0400220461A6112
:1035E800FFF777FF23681A69910622D5DA689206F1
:1035F8001FD56FF0200220461A61BDE8104000F088
:10360800E5BAFFF763FF2046FFF762FF76E7FFF7AB
:103618005DFF2046FFF75CFF85E7FFF757FF204671
:10362800FFF756FF93E7FFF751FF2046FFF750FFDC
:10363800A2E710BD304A0368904212D0B0F1804F23
:103648000FD0A2F57C4290420BD002F580629042E6
:1036580007D002F58062904203D002F5784290428A
:1036680019D14A6823F070031343234A90421DD0AE
:10367800B0F1804F1AD0A2F57C42904216D002F5E4
:103688008062904212D002F5806290420ED002F51C
:10369800784290420AD0194A904207D002F58062D7
:1036A800904203D002F58062904203D123F4407324
:1036B800CA6813434A6923F08003134303608B6885
:1036C800C3620B6883620C4B98420FD003F580638A
:1036D80098420BD003F57053984207D003F58063E6
:1036E800984203D003F58063984201D10B690363C4
:1036F80001234361704700BF0000014000400140C2
:1037080010B50446A0B190F83D3003F0FF021BB994
:1037180080F83C2004F01EFD02232068211D84F857
:103728003D30FFF787FF0123002084F83D3010BDAE
:103738000120FCE710B50446A0B190F83D3003F035
:10374800FF021BB980F83C2004F042FD02232068E8
:10375800211D84F83D30FFF76DFF0123002084F818
:103768003D3010BD0120FCE7036A23F0100370B55B
:103778000362036A4468826923F020030D6822F01B
:10378800807222F4E64242EA05228D6843EA051374
:10379800164DA84203D005F58065A8420DD1CD6825
:1037A80023F0800343EA0513104DA84223F0400399
:1037B8000ED005F58065A8420AD00D4DA84207D065
:1037C80005F58065A84203D005F58065A84206D1B5
:1037D80024F44065D1E90546344345EA840444604D
:1037E80082614A688263036270BD00BF00000140C5
:1037F8000040014038B590F83C3004460220012BC7
:1038080010D00123082A84F83D0084F83C3043D0C6
:1038180009D8FAB1042A2ED00123002084F83D30BB
:1038280084F83C0038BD102A47D0142A56D00C2AF8
:10383800F2D12068FFF79EFD23680969DA6942F42E
:103848000062DA61DA6922F48062DA61DA6942EAEE
:10385800012230E02068FFF7FFFC236809699A69B4
:1038680042F008029A619A6922F004029A619A6900
:103878000A439A61D0E72068FFF776FF2368096951
:103888009A6942F400629A619A6922F480629A61A4
:103898009A6942EA0122ECE72068FFF729FD2368CC
:1038A8000969DA6942F00802DA61DA6922F0040289
:1038B800DA61DA690A43DA61AEE72068FFF78CFD5E
:1038C800236809695A6D42F008025A655A6D22F058
:1038D80004025A655A6D0A435A659DE72068FFF746
:1038E800ADFD236809695A6D42F400625A655A6D44
:1038F80022F480625A655A6D42EA0122ECE710B55B
:103908000A43846842EA032324F47F442343836000
:1039180010BD000090F83C30012B70B504464FF004
:10392800020034D084F83D000123206884F83C303C
:1039380082684D4B134083600B68602B60D014D8AD
:10394800202B03D00BD80BB1102B1AD1826843F06F
:10395800070322F4401222F0700213434EE0402B7A
:1039680068D0502B32D0302BEFE7B3F1101FEDD0D9
:103978000ED8B3F5005F1FD0B3F5801FE6D0702BCB
:103988000FD00123002084F83D3084F83C0070BD3E
:10399800364A9342DAD010329342D7D0203A934233
:1039A800D3E7CB68D1E90121FFF7A9FF2268936823
:1039B80043F077039360E4E7CB68D1E90121FFF78F
:1039C8009EFF2268936843F48043F3E74A68CE6811
:1039D800016A056A21F00A0125F001050A4305621A
:1039E800836923F0F00343EA061383610262836864
:1039F80023F4401323F0700343F057038360C0E7B8
:103A08004D68CE68016A21F0100101628269036A7B
:103A180022F4704223F0A00342EA063243EA051377
:103A280082610362836823F4401323F0700343F038
:103A38006703E3E74A68CE68016A056A21F00A016C
:103A480025F001050A430562836923F0F00343EA80
:103A5800061383610262836823F4401323F0700322
:103A680043F04703CAE700BF8800CEFF30001000CC
:103A780001F01F01036A10B501248A408C4023EA33
:103A880004030362036A1A43026210BD10B50446B8
:103A980001220068FFF7ECFF2368124A93420FD017
:103AA80002F5806293420BD002F57052934207D020
:103AB80002F58062934203D002F58062934203D1FB
:103AC8005A6C42F400425A649968074A0A40062A26
:103AD80006D0B2F5803F03D01A6842F001021A609E
:103AE800002010BD0000014007000100FFF7CEBF15
:103AF80090F83C30012B4FF0020330B51FD002681C
:103B0800104D80F83D30AA425368946803D005F5FB
:103B18008065AA4203D123F470034D682B430D68D6
:103B280023F07003896824F080042B4321435360F9
:103B38000123916080F83D30002380F83C3018461E
:103B480030BD00BF0000014090F83C30012B10B59B
:103B580038D0CB688A6823F440731B4C13434A68F7
:103B680023F4806313430A6823F4006313430A6948
:103B780023F4805313434A6923F4005313438A6A96
:103B880023F4804313438A6923F4702343EA0243EE
:103B98000268A24203D004F58064A2420CD14C6AA8
:103BA80023F4700343EA0453CC69096A23F0807351
:103BB800234323F000730B435364002380F83C3005
:103BC800184610BD0220FCE700000140704770470E
:103BD80070470000F8B50546A8B10368D9074FD566
:103BE800A44B1A69996A02F03802102A05D0182ADB
:103BF8000BD101F00302022A07D11B689A033FD5B3
:103C08006B68002B3CD1012015E06B68994CB3F52B
:103C1800803F11D1236843F48033236001F0BCFF57
:103C2800944C064623689B032AD401F0B5FF801BF9
:103C38006428F7D90320F8BD9BB9236823F480339F
:103C48002360236823F48023236001F0A5FF064640
:103C580023689F0314D501F09FFF801B6428F7D9C0
:103C6800E8E7B3F5A02F236803D143F4802323604A
:103C7800D0E723F480332360236823F48023CCE740
:103C88002B689C0746D57B4BEA681969986A11F03E
:103C9800380103D0182918D1800716D11B68590795
:103CA80001D5002AAFD0734C236823F019031343BE
:103CB800236001F071FF064623685B0719D401F001
:103CC8006BFF801B0228F7D9B4E76A4C2368002AE7
:103CD8005CD023F019031343236001F05DFF06460F
:103CE80023685F0705D401F057FF801B0228F7D926
:103CF800A0E701F069FF41F203032A69984263686B
:103D080095BF23F47C3323F0FE4343EA023343EAAE
:103D1800026363602B68D90621D5564B1A69996AE4
:103D280002F03802082A05D0182A45D101F003020A
:103D3800012A41D11B68DA0503D5EB69802B7FF492
:103D480062AF01F041FF41F203034A4A9842296AEF
:103D58002BD8536823F0F84343EA816353602B68F8
:103D6800180771D56B69434C002B5DD0636F43F026
:103D78000103636701F010FF0646636F990763D478
:103D880001F00AFF801B0228F7D953E723F001034B
:103D9800236001F001FF064623685807BAD501F0F1
:103DA800FBFE801B0228F7D944E7D36823F07C5335
:103DB80043EA0163D360D2E7EB692E4C23B323684F
:103DC80043F08003236001F0E7FE06462368DB0525
:103DD80005D401F0E1FE801B0228F7D92AE701F09B
:103DE800F3FE41F203032A6A984206D8636823F077
:103DF800F84343EA82636360B1E7E36823F07C53E6
:103E080043EA0263E360AAE7236823F080032360A0
:103E180001F0C2FE06462368DF05A0D501F0BCFE0E
:103E2800801B0228F7D905E7636F23F00103636756
:103E380001F0B2FE0646636F9A0705D501F0ACFEA5
:103E4800801B0228F7D9F5E62B689B0624D5AB69B9
:103E5800084C8BB1236843F48053236001F09CFE27
:103E6800064623689F0417D401F096FE801B02289B
:103E7800F7D9DFE600440258236823F4805323600F
:103E880001F08AFE06462368980405D501F084FEF1
:103E9800801B0228F7D9CDE62B6859074CD5684C0A
:103EA800236843F48073236001F076FE0646236896
:103EB800DA0505D401F070FE801B6428F7D9B9E64D
:103EC800AB68604C012B12D1236F43F001032367C9
:103ED80041F2883401F060FE5A4E0746336F9B0763
:103EE8002AD401F059FEC01BA042F7D9A2E6ABB90B
:103EF800236F41F2883623F001032367236F23F0F1
:103F08000403236701F048FE0746236F980713D57B
:103F180001F042FEC01BB042F7D98BE6052B236F98
:103F280003D143F004032367CEE723F0010323679B
:103F3800236F23F00403CAE76A6A0AB900207AE605
:103F4800404C236903F03803182B3FF45CAE236818
:103F5800022A23F08073236066D101F01DFE064615
:103F68002368990105D501F017FE801B0228F7D9AF
:103F780060E6A36AAA6A23F47C7323F0030313435D
:103F8800EA6A43EA0213A3626B6BAA6B013B013A2C
:103F98005B0212049BB202F4FE0213432A6B013A3D
:103FA800C2F308021343EA6B013A120602F0FE421A
:103FB80013432363E36A23F00103E362636BAA6C90
:103FC80023F47F4323F0F80343EAC2036363E36AFD
:103FD8002A6C23F00C031343E362E36A6A6C23F050
:103FE8000203184D1343E362E36A43F48033E36248
:103FF800E36A43F40033E362E36A43F48023E36251
:10400800E36A43F00103E362236843F080732360AB
:1040180001F0C2FD04462B689A018FD401F0BCFD63
:10402800001B0228F7D905E601F0B6FD054623680E
:104038009B0183D501F0B0FD401B0228F7D9F9E5B3
:104048000048025800440258464B1A6902F03802E8
:10405800102A10B500F08480182A0CD00AB1424802
:1040680010BD1A68414812F0200FF9D01B68C3F33D
:10407800C103D840F4E7996A986ADA6AC0F3051070
:104088005C6B0028ECD007EE900A02F00102C4F342
:10409800CC00B7EE006AF8EEE76A424307EE902AD2
:1040A80001F00302012AFAEEE97A02D00FD3022ABC
:1040B80048D01B6BC3F3080307EE103AB8EEC77A73
:1040C80077EE277A77EE867A9FED296A37E01A68C5
:1040D800920627D51968254AC1F3C1011B6BCA404E
:1040E800C3F3080307EE102AF8EEC75A85EEA67A3E
:1040F80006EE903AF8EEE66A76EEA77A77EE867ADA
:10410800184B67EE877A1B6BC3F34623013307EE20
:10411800103AF8EEC76A87EEA67AFCEEC77A17EE71
:10412800900A9DE71B6BC3F3080307EE103AB8EE3D
:10413800C77A77EE277A77EE867A9FED0E6A86EE53
:10414800267ADDE71B6BC3F3080307EE103AB8EED7
:10415800C77A77EE277A77EE867A9FED076AEEE7D9
:1041680006487DE70044025800093D000090D0034E
:104178000024744A0024744C20BCBE4B40787D0156
:104188002DE9F0410D46044610B90120BDE8F08143
:104198007E4A136803F00F038B4265D323685F07D9
:1041A8006DD41E070BD57A496669C86900F070009E
:1041B800864204D9CA6922F070023243CA61D8061D
:1041C8000BD57349A669C86900F4E060864204D932
:1041D800CA6922F4E0623243CA6199060BD56C4978
:1041E800E669086A00F07000864204D90A6A22F07B
:1041F800700232430A629A070BD56549E6688869F6
:1042080000F00F00864204D98A6922F00F02324377
:104218008A61DF074DD55E4BA1689A6922F4706206
:104228000A439A6161681A68022935D112F4003F7D
:10423800ABD01A6941F28836DFF8548122F00702C0
:104248000A431A6101F0A8FC0746D8F810306268E2
:1042580003F03803B3EBC20F2BD001F09DFCC01B59
:10426800B042F2D9032091E7136823F00F030B4300
:104278001360136803F00F038B4286D18EE744491D
:104288002669886900F0700086428AD98A6922F016
:10429800700232438A6184E7032902D112F0007F59
:1042A800C6E7012902D112F4807FC1E712F0040F9A
:1042B800BEE723689E070BD53549E668886900F094
:1042C8000F00864204D28A6922F00F0232438A61C3
:1042D8002E490A6802F00F02AA423ED8580748D46D
:1042E80019070BD52A496569C86900F0700085422D
:1042F80004D2CA6922F070022A43CA61DA060BD5D1
:104308002349A569C86900F4E060854204D2CA69F6
:1043180022F4E0622A43CA619B060BD51C4AE06975
:10432800116A01F07001884204D2136A23F0700305
:1043380003431362FFF788FE154B164A9B69C3F3C4
:104348000323D35C03F01F03D840134B1860134BAF
:10435800BDE8F041186801F0BFBB0A6822F00F02FF
:104368002A430A600A6802F00F02AA427FF40DAFDE
:10437800B4E707492569886900F070008542AFD223
:104388008A6922F070022A438A61A9E70020005254
:104398000044025848B50008F0570020EC570020A8
:1043A80008B501F00DF8064B064A9B6903F00F03A8
:1043B800D35C03F01F03D840034B186008BD00BF4F
:1043C8000044025848B50008F4570020F8B53A4CA4
:1043D80006460D46A36A03F00303032B67D0236840
:1043E80023F08063236001F0D7FB074623681A0196
:1043F80006D501F0D1FBC01B0228F7D90320F8BD70
:10440800A36A326823F47C3343EA0233A362B368B5
:10441800F268013B013A5B0212049BB202F4FE020D
:1044280013437268013AC2F3080213433269013A2E
:10443800120602F0FE421343A363E36A726923F093
:10444800C0031343E362E36AB26923F02003134312
:10445800E362E36A23F01003E362E36BF26923F497
:104468007F4323F0F80343EAC203E363E36A43F0BC
:104478001003E362E36A9DB943F40023E3620E4C40
:10448800236843F08063236001F086FB05462368B8
:104498001B010ED401F080FB401B0228F7D9ADE7C1
:1044A800012D0CBF43F4801343F40013E6E7012009
:1044B800A5E70020A3E700BF00440258F8B53A4C2E
:1044C80006460D46A36A03F00303032B67D023684F
:1044D80023F08053236001F05FFB074623689A00AE
:1044E80006D501F059FBC01B0228F7D90320F8BDF7
:1044F800A36A326823F07C7343EA0253A362B36869
:10450800F268013B013A5B0212049BB202F4FE021C
:1045180013437268013AC2F3080213433269013A3D
:10452800120602F0FE4213432364E36A726923F41D
:1045380040631343E362E36AB26923F400731343ED
:10454800E362E36A23F48073E362636CF26923F441
:104558007F4323F0F80343EAC2036364E36A43F446
:104568008073E362E36A9DB943F48003E3620E4C0F
:10457800236843F08053236001F00EFB054623684F
:104588009B000ED401F008FB401B0228F7D9ADE7C9
:10459800012D0CBF43F4000343F08073E6E70120CC
:1045A800A5E70020A3E700BF004402582DE9F8431F
:1045B8000668044616F0006623D0436EB3F5801FE4
:1045C80018D002D883B101261BE0B3F5001F23D011
:1045D800B3F5401FF7D19F4A0026616E136D23F48F
:1045E80040130B4313650CE09A4AD36A43F4003333
:1045F800D362F0E702210430FFF7E8FE0646002800
:10460800E9D02368DD0534D5636D042B30D8DFE8A5
:1046180003F0080F290D0D0002212430FFF74EFF8B
:10462800ECE78C4AD36A43F40033D362354604E09E
:104638000021201DFFF7CAFE0546E5B9854A616DD0
:10464800136D23F007030B4313652368980521D5E1
:10465800A36D802B3BD010D86BB3402B31D00126F3
:10466800354617E0002104F12400FFF727FFE3E7B0
:1046780001263546E9E72E46E7E7C02B02D0B3F519
:10468800807FECD14DBB734AA16D136D23F4E073A9
:104698000B4313652368590530D5D4F8A430B3F516
:1046A800800F47D01BD8002B38D0B3F5001F3BD064
:1046B8000126354622E0674AD36A43F40033D362C1
:1046C800E0E70021201DFFF781FE0546DAE700211B
:1046D80004F12400FFF7F2FEF7E72E46DAE7B3F518
:1046E800C00F02D0B3F5000FE2D14DBB594AD4F840
:1046F800A410936D23F460030B43936523681A0594
:104708002FD5D4F8A830B3F1007F41D01AD89BB385
:10471800B3F1807F36D00126354622E04D4AD36A70
:1047280043F40033D362E0E70021201DFFF74EFE7B
:104738000546DAE7002104F12400FFF7BFFEF7E79A
:104748002E46DBE7B3F1407F02D0B3F1806FE2D1B0
:1047580025BB404AD4F8A810936D23F0E0630B43BF
:10476800936523689B0127D5A36C102B33D017D8EA
:10477800D3B1012635461FE0364AD36A43F40033E5
:10478800D362E5E70021201DFFF720FE0546DFE79D
:10479800002104F12400FFF791FEF7E72E46E0E739
:1047A800202B1ED0302BE4D10DBB2A4AA16CD36C30
:1047B80023F030030B43D3642368DF0427D5E36D6C
:1047C800B3F5005F3ED014D883B3B3F5805F33D020
:1047D800012635461BE01F4AD36A43F40033D362EF
:1047E800E2E70221201DFFF7F1FD0546DCE72E4632
:1047F800E2E7B3F5405F02D0B3F5804FE8D13DBBA7
:10480800144AE16D136D23F4E0430B4313652368E9
:10481800980432D5236EB3F5003F44D01CD823B397
:10482800B3F5803F39D00126354626E0094AD36AD8
:1048380043F40033D362E2E70021201DFFF7C6FDF1
:104848000546DCE7002104F12400FFF737FEF7E70F
:104858002E46DCE700440258B3F5802F05D0B3F5A7
:10486800A02F02D0B3F5403FDDD115BBA14A216E80
:10487800136D23F4E0230B431365236859042DD5E6
:10488800D4F8AC30B3F1005F4BD014D8E3B1B3F136
:10489800805F40D00126354620E00121201DFFF72A
:1048A80095FD0546E1E7012104F12400FFF706FE26
:1048B800F7E72E46E1E7B3F1804F05D0B3F1A04FFB
:1048C80002D0B3F1405FE5D1002D30D1894AD4F848
:1048D800AC10936D23F0E0430B43936523681A04EF
:1048E8000FD5E36EB3F1805F23D0B3F1005F26D01C
:1048F8005BBB6DBB7F4AE16E136D23F040530B43E6
:1049080013652368DB0133D5636C032B5AD8DFE8C2
:1049180003F0262153260121201DFFF757FD0546E8
:10492800D2E7012104F12400FFF7C8FDF7E72E467E
:10493800D4E7704AD36A43F40033D362D9E701213C
:10494800201DFFF743FD0546D3E701263546D8E786
:104958002E46D6E7674AD36A43F40033D362002D64
:1049680033D1644A616CD36C23F003030B43D364E3
:1049780023685F0212D5604F3B6843F480733B6045
:1049880001F00AF980463B68D80520D401F004F903
:10499800A0EB08006428F6D9032635462368DA0711
:1049A8006BD5A36F102B79D059D8002B5DD0082B6D
:1049B8006ED00126354660E00221201DFFF706FD76
:1049C8000546CCE701263546D2E72E46D0E7002D2E
:1049D80043D1484BD4F8B0001A6F424012F4407FDC
:1049E8000BD01A6F196F22F4407241F480311967A5
:1049F800196F21F4803119671A67B0F5807F11D1DA
:104A080001F0CAF8DFF8EC90804641F28837D9F80F
:104A18007030990706D401F0BFF8A0EB0800B8423F
:104A2800F5D9B9E7D4F8B030324903F44072B2F599
:104A3800407F0ED10869314A20F47C5002EA1312F3
:104A480002430A61C3F30B032A4A116F0B4313672E
:104A5800A4E70A6922F47C52F3E72E469EE7202B4E
:104A680003D0282B01D0182BA3D1EDB9214AA16F6F
:104A7800536D23F038030B43536523689B0722D5F6
:104A8800636F052B31D8DFE803F016112A161616C6
:104A98000121201DFFF79AFC0546E6E7012104F1F4
:104AA8002400FFF70BFDF7E72E46E6E70121201D5E
:104AB800FFF78CFC0546DDB90E4A616F536D23F094
:104AC80007030B43536523685F0727D5D4F8903055
:104AD800052B39D8DFE803F0191432191919012107
:104AE80004F12400FFF7EAFCE4E701263546EAE78B
:104AF8002E46E8E70044025800480258CFFFFF005E
:104B08000121201DFFF762FC054605BB974AD4F832
:104B18009010936D23F007030B4393652368980661
:104B280029D5D4F88C30B3F1005F3AD011D8CBB185
:104B3800B3F1805F2FD0012635461CE0012104F136
:104B48002400FFF7BBFCDFE701263546E6E72E46E3
:104B5800E4E7B3F1804F05D0B3F1A04F02D0B3F131
:104B6800405FE8D11DBB814AD4F88C10536D23F007
:104B7800E0430B435365236859062CD5D4F8983085
:104B8800B3F5006F3FD014D8E3B1B3F5806F34D0DC
:104B9800012635461FE00021201DFFF717FC0546BA
:104BA800E0E7022104F12400FFF788FCF7E72E462E
:104BB800E1E7B3F5805F05D0B3F5A05F02D0B3F5A8
:104BC800406FE5D12DBB694AD4F89810936D23F452
:104BD800E0530B43936523681A062FD5D4F89C300D
:104BE800B3F5804F00F0958015D8EBB1B3F5005FB1
:104BF80000F089800126354620E00021201DFFF7BE
:104C0800E5FB0546DEE7022104F12400FFF756FC28
:104C1800F7E72E46DFE7B3F5004F05D0B3F5204F91
:104C280002D0B3F5C04FE5D1002D78D14F4AD4F862
:104C38009C10936D23F460430B43936523681B0713
:104C48000CD5D4F88010B1F5805F6AD1022104F147
:104C58002400FFF733FC002818BF01262368DF066D
:104C68000CD5D4F89410B1F5807F61D1022104F1FC
:104C78002400FFF723FC002818BF01262368180327
:104C880017D5D4F8A010B1F5803F58D0B1F5003F42
:104C980005D0002959D1201DFFF798FB0546002DA6
:104CA80056D1324AD4F8A010936D23F440330B4305
:104CB80093652368590319D5D4F88430B3F5001FD8
:104CC80048D0B3F5401F07D0B3F5801F49D1274A14
:104CD800D36A43F40033D362002D45D1234AD4F874
:104CE8008410536D23F440130B4353652368DA0390
:104CF8004CD5E36C002B3BD0B3F5803F00F0998096
:104D08000126354642E00021201DFFF75FFB0546DE
:104D18008AE7022104F12400FFF7D0FBF7E72E46CB
:104D28008CE7124A536D23F440530B43536595E7C0
:104D38000E4A936D23F440730B4393659EE702215B
:104D480004F12400FFF7BAFBA8E701263546B0E7CF
:104D58002E46AEE7012104F12400FFF7AFFB05461C
:104D6800BAE701263546C1E72E46BFE70044025898
:104D78003C4AD36A43F40033D362002D5FD1394AE9
:104D8800E16CD36C23F480330B43D36423689B001A
:104D980007D5022104F12400FFF790FB002818BF73
:104DA800012623689F030ED5E16FB1F5807F50D0AF
:104DB80047D800294BD1002D51D12A48426D22F401
:104DC80040720A434265DD0206D52649206F0A6D06
:104DD80022F0004202430A65D80007D52149D4F8D9
:104DE800B4000A6922F4804202430A61990206D596
:104DF8001C49A06E0A6D22F0807202430A655A00AF
:104E080009D5184A116921F4004111611169D4F8D2
:104E1800B80001431161002B06DA124A216DD36CE8
:104E280023F040530B43D364301C18BF0120BDE866
:104E3800F8830221201DFFF7C9FA05469DE72E4693
:104E4800A4E7B1F5007FB6D0B1F5407FB3D0012615
:104E5800B9E70448C26A42F40032C262ABE72E46A0
:104E6800B1E700BF004402584D4930B58C6A8B6ADF
:104E7800CA6AC3F30533CD6B002B00F08C8007EEB4
:104E8800903AC5F3CC0502F01003B7EE006AF8EECD
:104E9800E76A6B4307EE903A04F00303012BFAEE3E
:104EA800E97A02D00FD3022B67D08B6BDFED3D5A26
:104EB800C3F3080307EE103AB8EEC77A77EE277AFD
:104EC80077EE867A56E00B689B0646D50A688B6BA8
:104ED800C2F3C101344AC3F30803CA4007EE102ADB
:104EE800F8EEC75A85EEA67A06EE903AF8EEE66A2C
:104EF80076EEA77A77EE867A294A67EE877A936BF9
:104F0800C3F3462307EE103AB8EEC77A37EE067AAF
:104F1800C7EE876AFCEEE66AC0ED006A936BC3F3DE
:104F2800064307EE103AB8EEC77A37EE067AC7EEB0
:104F3800876AFCEEE66AC0ED016A936BC3F3066309
:104F480007EE103AB8EEC77A37EE066A87EE867A29
:104F5800BCEEC77A80ED027A30BD8B6BDFED135A59
:104F6800C3F3080307EE103AB8EEC77A77EE277A4C
:104F780077EE867A85EEA67ABEE78B6BDFED0C5A64
:104F8800C3F3080307EE103AB8EEC77A77EE277A2C
:104F980077EE867AEEE7C0E900338360DCE700BF8E
:104FA800004402580024744A0090D0030024744C32
:104FB80020BCBE4B4D4930B58C6A8B6ACA6AC3F3B4
:104FC80005534D6C002B00F08C8007EE903AC5F32A
:104FD800CC0502F48073B7EE006AF8EEE76A6B431B
:104FE80007EE903A04F00303012BFAEEE97A02D0B7
:104FF8000FD3022B67D00B6CDFED3D5AC3F30803C8
:1050080007EE103AB8EEC77A77EE277A77EE867A07
:1050180056E00B689B0646D50A680B6CC2F3C101C3
:10502800344AC3F30803CA4007EE102AF8EEC75AF9
:1050380085EEA67A06EE903AF8EEE66A76EEA77A5C
:1050480077EE867A294A67EE877A136CC3F346238C
:1050580007EE103AB8EEC77A37EE067AC7EE876AD7
:10506800FCEEE66AC0ED006A136CC3F3064307EE74
:10507800103AB8EEC77A37EE067AC7EE876AFCEEC2
:10508800E66AC0ED016A136CC3F3066307EE103AD3
:10509800B8EEC77A37EE066A87EE867ABCEEC77A2C
:1050A80080ED027A30BD0B6CDFED135AC3F30803B1
:1050B80007EE103AB8EEC77A77EE277A77EE867A57
:1050C80085EEA67ABEE70B6CDFED0C5AC3F3080336
:1050D80007EE103AB8EEC77A77EE277A77EE867A37
:1050E800EEE7C0E900338360DCE700BF0044025804
:1050F8000024744A0090D0030024744C20BCBE4B9A
:105108004D4930B58C6A8B6ACA6AC3F305134D6B77
:10511800002B00F08C8007EE903AC5F3CC0502F026
:105128000103B7EE006AF8EEE76A6B4307EE903AC0
:1051380004F00303012BFAEEE97A02D00FD3022B15
:1051480067D00B6BDFED3D5AC3F3080307EE103A47
:10515800B8EEC77A77EE277A77EE867A56E00B684C
:105168009B0646D50A680B6BC2F3C101344AC3F3E8
:105178000803CA4007EE102AF8EEC75A85EEA67A49
:1051880006EE903AF8EEE66A76EEA77A77EE867A39
:10519800294A67EE877A136BC3F3462307EE103A62
:1051A800B8EEC77A37EE067AC7EE876AFCEEE66A8B
:1051B800C0ED006A136BC3F3064307EE103AB8EE6E
:1051C800C77A37EE067AC7EE876AFCEEE66AC0ED64
:1051D800016A136BC3F3066307EE103AB8EEC77A99
:1051E80037EE066A87EE867ABCEEC77A80ED027AD9
:1051F80030BD0B6BDFED135AC3F3080307EE103A0B
:10520800B8EEC77A77EE277A77EE867A85EEA67AB1
:10521800BEE70B6BDFED0C5AC3F3080307EE103A39
:10522800B8EEC77A77EE277A77EE867AEEE7C0E9A6
:1052380000338360DCE700BF004402580024744A4E
:105248000090D0030024744C20BCBE4BB0F5807F86
:105258001FB524D1554B1A6D02F00702042A2CD829
:10526800DFE802F003850A9E0E0001A8FFF748FF59
:10527800029805B05DF804FB01A8FFF79BFE79E0F2
:10528800DB6C13F0405300F08D80B3F1805F00F0C9
:105298008B80B3F1005F464818BF0020E9E7B0F5FE
:1052A800007F13D1414A136D03F4E073802BE3D0E0
:1052B80005D8002BD9D0402B59D00020D9E7C02BD6
:1052C8006ED0B3F5807FF8D1D36CDAE7B0F5806F94
:1052D80012D1364A936D03F46003B3F5800FCBD037
:1052E80004D8002BC1D0B3F5001FE5E7B3F5C00F14
:1052F80056D0B3F5000FE6E7B0F5006F12D12B4A90
:10530800936D03F0E063B3F1007FB5D004D8002BB0
:10531800ABD0B3F1807FCFE7B3F1407F40D0B3F19A
:10532800806FD0E7B0F5805F12D1204A136D03F487
:10533800E043B3F5005F9FD004D8002B95D0B3F5B8
:10534800805FB9E7B3F5405F2AD0B3F5804FBAE77D
:10535800B0F5002F15D1154A936D03F44033B3F51A
:10536800803F09D0B3F5003FAED0002BA5D101A8EE
:10537800FFF77AFD01987CE701A8FFF71BFE039869
:1053880077E7B0F5803F98D1084BDB6C13F4803396
:105398003FF46BAF002B90D001A8FFF765FDEEE757
:1053A800044866E7044864E7044862E70044025892
:1053B80040787D010080BB000090D00300093D00CB
:1053C80008B5FEF741FE064B064A9B69C3F3032363
:1053D800D35C03F01F03D840034B186008BD00BF1F
:1053E8000044025848B50008F0570020184BD3F87D
:1053F800942042F0020210B5C3F894200446D3F872
:10540800942022F00202C3F8942000F0DDFB41F260
:10541800030398422368D4E9011216D8B1F1405F1A
:1054280013D11A43D4E9033143EA01431A43094B20
:105438005A601A68616922F47C5242EA01221A60B1
:105448001A6842F060021A6010BD0B43E9E700BF1A
:1054580000440258008400402DE9F04F0B6885B0E5
:10546800DFF8C4814FF0B04901930023DFF8BCE1B5
:10547800019ADA4000F0D2800127019A9F4012EA8F
:10548800070500F0B7804A6822F01006022E16D1F0
:105498004FEAD30A03F0070B4FF00F0C00EB8A0A10
:1054A8004FEA8B0BDAF820400CFA0BFC24EA0C0CC0
:1054B8000C6904FA0BF444EA0C04CAF820404FEAD9
:1054C800430A0324D0F800B002F0030C04FA0AF4EB
:1054D800013E0CFA0AFCE443012E04EA0B0B4CEAE9
:1054E8000B0CC0F800C010D8866806EA040BCE681A
:1054F80006FA0AFC4CEA0B068660466826EA0707A5
:10550800C2F300169E4037434760C66834408E6831
:1055180006FA0AF63443C460D4006BD5D8F8F440D0
:1055280023F0030603F003074FF00F0C44F00204C6
:1055380006F1B046BF00C8F8F44006F58066D8F812
:10554800F44004F002040394039C0CFA07F4D6F820
:1055580008A02AEA040C334CA0424DD004F580641C
:10556800A0424BD004F58064A04249D004F5806481
:10557800A04247D004F58064A04245D004F5806479
:10558800A04243D004F58064A04241D004F5806471
:10559800A0423FD004F58064A0423DD004F5806469
:1055A800A04214BF0A240924BC40D70344EA0C04CF
:1055B800B4606FEA0506DEF8004054BF34402C435F
:1055C8009703CEF80040DEF8044054BF34402C4323
:1055D800D7024FF0B047CEF80440D9F8004054BF86
:1055E80034402C4392023C607C6854BF34402C43C6
:1055F800C9F8044001333BE70024D5E70124D3E789
:105608000224D1E70324CFE70424CDE70524CBE720
:105618000624C9E70724C7E70824C5E705B0BDE89D
:10562800F08F00BF00000258004402588000005864
:105638000369194214BF0120002070470AB1816133
:1056480070470904FBE700000368244A934210B539
:105658002DD0183293422AD01832934227D01832CC
:10566800934224D01832934221D0183293421ED04C
:10567800183293421BD01832934218D002F5567252
:10568800934214D01832934211D0183293420ED05C
:10569800183293420BD01832934208D018329342F2
:1056A80005D01832934202D01832934213D1DAB29D
:1056B80018210B4C23F47F73103A23F00303B2FB39
:1056C800F1F202F00701032A615CC16500D90433D5
:1056D8008365806D10BD23F0FF03F9E710000240D9
:1056E80040B5000802681E49D3B28A4214D014316A
:1056F8008A4211D014318A420ED014318A420BD01A
:1057080014318A4208D014318A4205D014318A42B1
:1057180002D014318A4212D11422083BB3FBF2F3AF
:1057280003F1B05202F51642920002660D4A426633
:1057380003F01F03012202FA03F38366704718215E
:10574800103BB3FBF1F308491144A82998BF08336B
:1057580003F1805202F5024292000266034AE6E72C
:105768000854025880580258F0FBFDBF80080240D8
:105778000279511E072910B521D80368134CA3429A
:1057880014D01434A34211D01434A3420ED01434CC
:10579800A3420BD01434A34208D01434A34205D03A
:1057A8001434A34202D01434A34209D1084B134441
:1057B8009B00C366074B036701238B40436710BDFB
:1057C800054B13449B00C366044BF4E70854025886
:1057D8003F960016405902583F8200104009024087
:1057E80070B5044600F0D8F90546002C6CD0236843
:1057F8009D4A93422ED09D498B422BD018318B4223
:1058080028D018318B4225D018318B4222D018313C
:105818008B421FD018318B421CD018318B4219D0C3
:1058280001F556718B4215D018318B4212D01831C0
:105838008B420FD018318B420CD018318B4209D0D3
:1058480018318B4206D018318B4203D018318B4265
:1058580040F0B1800021934284F834104FF00201E7
:1058680084F835101ED0814A93421BD018329342D7
:1058780018D01832934215D01832934212D01832E9
:1058880093420FD0183293420CD01832934209D069
:1058980002F55672934205D01832934202D018325C
:1058A8009342FFD01A6822F001021A6021680B683F
:1058B800D8070BD500F070F9401B0528F6D920232E
:1058C8006365032384F8353001206FE00B68684D69
:1058D800A0691D40D4E90223134322691343626976
:1058E8001343E26903431343226A1343626A042A97
:1058F80043EA050302BFD4E90B5635432B43042A78
:105908000B604B6923F0070343EA02030CD1A26A38
:10591800E56A134345B1002830D1012A3ED001D3AE
:10592800022A01D1EA013CD44B612046FFF78CFEE4
:10593800E36D03F01F023F23934083602046002558
:10594800FFF7D0FEA368226E802B04BF002363609C
:105958006368D9B2013B1160072BD4E91921516062
:105968007DD8FFF705FFE36E1D60D4E91C325A604D
:1059780000200123606584F8353017E0B0F5005F3A
:1059880015D1032AD0D801A050F822F0AB5900084D
:105998002D590008AB590008A5590008B5F1C07F7A
:1059A800C2D140230120636584F8350070BD022A06
:1059B800F7D9032AB5E72F4A934214D014329342F9
:1059C80011D0143293420ED0143293420BD01432B9
:1059D800934208D01432934205D01432934202D035
:1059E8001432934239D1002284F83420022284F8F8
:1059F8003520A2681968402A21F4FF3121F4F87192
:105A080029D0802A0CBF4FF480400020D4E90352EB
:105A1800D20842EAD502656942EAD502A56942EA96
:105A2800D502E56942EAD502256A42EA15120A4317
:105A3800024320461A60104A1A441423B2FBF3F2B8
:105A48009200E265FFF700FEE36D03F01F020123F9
:105A58009340436072E71020D8E7402330E7C4E959
:105A68001B55656784E700BF10000240280002400C
:105A78003F8010FE08540258F8ABFDA738B5114B0B
:105A8800DA6812F0040F1A4604D1DB6803F0070342
:105A9800834213D1D3680B4D23F007031843D0601A
:105AA80000F07AF804466B689B0409D400F074F897
:105AB800001BB0F57A7FF6D9032038BD0120FCE73A
:105AC8000020FAE700480258024AD36843F080737E
